{
  "contractName": "MetoToken",
  "abi": [
    {
      "inputs": [],
      "stateMutability": "nonpayable",
      "type": "constructor"
    },
    {
      "anonymous": false,
      "inputs": [
        {
          "indexed": true,
          "internalType": "address",
          "name": "_owner",
          "type": "address"
        },
        {
          "indexed": true,
          "internalType": "address",
          "name": "_spender",
          "type": "address"
        },
        {
          "indexed": false,
          "internalType": "uint256",
          "name": "_value",
          "type": "uint256"
        }
      ],
      "name": "Approval",
      "type": "event"
    },
    {
      "anonymous": false,
      "inputs": [
        {
          "indexed": true,
          "internalType": "address",
          "name": "_from",
          "type": "address"
        },
        {
          "indexed": true,
          "internalType": "address",
          "name": "_to",
          "type": "address"
        },
        {
          "indexed": false,
          "internalType": "uint256",
          "name": "_value",
          "type": "uint256"
        }
      ],
      "name": "Transfer",
      "type": "event"
    },
    {
      "inputs": [
        {
          "internalType": "address",
          "name": "",
          "type": "address"
        },
        {
          "internalType": "address",
          "name": "",
          "type": "address"
        }
      ],
      "name": "allowance",
      "outputs": [
        {
          "internalType": "uint256",
          "name": "",
          "type": "uint256"
        }
      ],
      "stateMutability": "view",
      "type": "function",
      "constant": true
    },
    {
      "inputs": [
        {
          "internalType": "address",
          "name": "",
          "type": "address"
        }
      ],
      "name": "balanceOf",
      "outputs": [
        {
          "internalType": "uint256",
          "name": "",
          "type": "uint256"
        }
      ],
      "stateMutability": "view",
      "type": "function",
      "constant": true
    },
    {
      "inputs": [],
      "name": "name",
      "outputs": [
        {
          "internalType": "string",
          "name": "",
          "type": "string"
        }
      ],
      "stateMutability": "view",
      "type": "function",
      "constant": true
    },
    {
      "inputs": [],
      "name": "standard",
      "outputs": [
        {
          "internalType": "string",
          "name": "",
          "type": "string"
        }
      ],
      "stateMutability": "view",
      "type": "function",
      "constant": true
    },
    {
      "inputs": [],
      "name": "symbol",
      "outputs": [
        {
          "internalType": "string",
          "name": "",
          "type": "string"
        }
      ],
      "stateMutability": "view",
      "type": "function",
      "constant": true
    },
    {
      "inputs": [],
      "name": "totalSupply",
      "outputs": [
        {
          "internalType": "uint256",
          "name": "",
          "type": "uint256"
        }
      ],
      "stateMutability": "view",
      "type": "function",
      "constant": true
    },
    {
      "inputs": [
        {
          "internalType": "address",
          "name": "_to",
          "type": "address"
        },
        {
          "internalType": "uint256",
          "name": "_value",
          "type": "uint256"
        }
      ],
      "name": "transfer",
      "outputs": [
        {
          "internalType": "bool",
          "name": "success",
          "type": "bool"
        }
      ],
      "stateMutability": "nonpayable",
      "type": "function"
    },
    {
      "inputs": [
        {
          "internalType": "address",
          "name": "_spender",
          "type": "address"
        },
        {
          "internalType": "uint256",
          "name": "_value",
          "type": "uint256"
        }
      ],
      "name": "approve",
      "outputs": [
        {
          "internalType": "bool",
          "name": "success",
          "type": "bool"
        }
      ],
      "stateMutability": "nonpayable",
      "type": "function"
    },
    {
      "inputs": [
        {
          "internalType": "address",
          "name": "_from",
          "type": "address"
        },
        {
          "internalType": "address",
          "name": "_to",
          "type": "address"
        },
        {
          "internalType": "uint256",
          "name": "_value",
          "type": "uint256"
        }
      ],
      "name": "transferFrom",
      "outputs": [
        {
          "internalType": "bool",
          "name": "success",
          "type": "bool"
        }
      ],
      "stateMutability": "nonpayable",
      "type": "function"
    },
    {
      "inputs": [
        {
          "internalType": "address",
          "name": "_walletAddress",
          "type": "address"
        }
      ],
      "name": "getBalanceOf",
      "outputs": [
        {
          "internalType": "uint256",
          "name": "",
          "type": "uint256"
        }
      ],
      "stateMutability": "view",
      "type": "function",
      "constant": true
    }
  ],
  "bytecode": "0x60806040526040518060400160405280600a81526020017f4d65746f20546f6b656e00000000000000000000000000000000000000000000815250600090805190602001906200005192919062000156565b506040518060400160405280600281526020017f4d54000000000000000000000000000000000000000000000000000000000000815250600190805190602001906200009f92919062000156565b506040518060400160405280600f81526020017f4d65746f20546f6b656e2076312e30000000000000000000000000000000000081525060029080519060200190620000ed92919062000156565b5069d3c21bcecceda10000006003553480156200010957600080fd5b50600354600460003373ffffffffffffffffffffffffffffffffffffffff1673ffffffffffffffffffffffffffffffffffffffff168152602001908152602001600020819055506200026b565b828054620001649062000206565b90600052602060002090601f016020900481019282620001885760008555620001d4565b82601f10620001a357805160ff1916838001178555620001d4565b82800160010185558215620001d4579182015b82811115620001d3578251825591602001919060010190620001b6565b5b509050620001e39190620001e7565b5090565b5b8082111562000202576000816000905550600101620001e8565b5090565b600060028204905060018216806200021f57607f821691505b602082108114156200023657620002356200023c565b5b50919050565b7f4e487b7100000000000000000000000000000000000000000000000000000000600052602260045260246000fd5b610d41806200027b6000396000f3fe608060405234801561001057600080fd5b506004361061009e5760003560e01c806370a082311161006657806370a082311461015d57806395d89b411461018d5780639b96eece146101ab578063a9059cbb146101db578063dd62ed3e1461020b5761009e565b806306fdde03146100a3578063095ea7b3146100c157806318160ddd146100f157806323b872dd1461010f5780635a3b7e421461013f575b600080fd5b6100ab61023b565b6040516100b89190610ade565b60405180910390f35b6100db60048036038101906100d69190610a30565b6102c9565b6040516100e89190610ac3565b60405180910390f35b6100f96103bb565b6040516101069190610b00565b60405180910390f35b610129600480360381019061012491906109e1565b6103c1565b6040516101369190610ac3565b60405180910390f35b610147610647565b6040516101549190610ade565b60405180910390f35b6101776004803603810190610172919061097c565b6106d5565b6040516101849190610b00565b60405180910390f35b6101956106ed565b6040516101a29190610ade565b60405180910390f35b6101c560048036038101906101c0919061097c565b61077b565b6040516101d29190610b00565b60405180910390f35b6101f560048036038101906101f09190610a30565b6107c4565b6040516102029190610ac3565b60405180910390f35b610225600480360381019061022091906109a5565b61092d565b6040516102329190610b00565b60405180910390f35b6000805461024890610c3c565b80601f016020809104026020016040519081016040528092919081815260200182805461027490610c3c565b80156102c15780601f10610296576101008083540402835291602001916102c1565b820191906000526020600020905b8154815290600101906020018083116102a457829003601f168201915b505050505081565b600081600560003373ffffffffffffffffffffffffffffffffffffffff1673ffffffffffffffffffffffffffffffffffffffff16815260200190815260200160002060008573ffffffffffffffffffffffffffffffffffffffff1673ffffffffffffffffffffffffffffffffffffffff168152602001908152602001600020819055508273ffffffffffffffffffffffffffffffffffffffff163373ffffffffffffffffffffffffffffffffffffffff167f8c5be1e5ebec7d5bd14f71427d1e84f3dd0314c0f7b2291e5b200ac8c7c3b925846040516103a99190610b00565b60405180910390a36001905092915050565b60035481565b6000600460008573ffffffffffffffffffffffffffffffffffffffff1673ffffffffffffffffffffffffffffffffffffffff1681526020019081526020016000205482111561040f57600080fd5b600560008573ffffffffffffffffffffffffffffffffffffffff1673ffffffffffffffffffffffffffffffffffffffff16815260200190815260200160002060003373ffffffffffffffffffffffffffffffffffffffff1673ffffffffffffffffffffffffffffffffffffffff1681526020019081526020016000205482111561049857600080fd5b81600460008673ffffffffffffffffffffffffffffffffffffffff1673ffffffffffffffffffffffffffffffffffffffff16815260200190815260200160002060008282546104e79190610b8d565b9250508190555081600460008573ffffffffffffffffffffffffffffffffffffffff1673ffffffffffffffffffffffffffffffffffffffff168152602001908152602001600020600082825461053d9190610b37565b9250508190555081600560008673ffffffffffffffffffffffffffffffffffffffff1673ffffffffffffffffffffffffffffffffffffffff16815260200190815260200160002060003373ffffffffffffffffffffffffffffffffffffffff1673ffffffffffffffffffffffffffffffffffffffff16815260200190815260200160002060008282546105d09190610b8d565b925050819055508273ffffffffffffffffffffffffffffffffffffffff168473ffffffffffffffffffffffffffffffffffffffff167fddf252ad1be2c89b69c2b068fc378daa952ba7f163c4a11628f55a4df523b3ef846040516106349190610b00565b60405180910390a3600190509392505050565b6002805461065490610c3c565b80601f016020809104026020016040519081016040528092919081815260200182805461068090610c3c565b80156106cd5780601f106106a2576101008083540402835291602001916106cd565b820191906000526020600020905b8154815290600101906020018083116106b057829003601f168201915b505050505081565b60046020528060005260406000206000915090505481565b600180546106fa90610c3c565b80601f016020809104026020016040519081016040528092919081815260200182805461072690610c3c565b80156107735780601f1061074857610100808354040283529160200191610773565b820191906000526020600020905b81548152906001019060200180831161075657829003601f168201915b505050505081565b6000600460008373ffffffffffffffffffffffffffffffffffffffff1673ffffffffffffffffffffffffffffffffffffffff168152602001908152602001600020549050919050565b600081600460003373ffffffffffffffffffffffffffffffffffffffff1673ffffffffffffffffffffffffffffffffffffffff16815260200190815260200160002054101561081257600080fd5b81600460003373ffffffffffffffffffffffffffffffffffffffff1673ffffffffffffffffffffffffffffffffffffffff16815260200190815260200160002060008282546108619190610b8d565b9250508190555081600460008573ffffffffffffffffffffffffffffffffffffffff1673ffffffffffffffffffffffffffffffffffffffff16815260200190815260200160002060008282546108b79190610b37565b925050819055508273ffffffffffffffffffffffffffffffffffffffff163373ffffffffffffffffffffffffffffffffffffffff167fddf252ad1be2c89b69c2b068fc378daa952ba7f163c4a11628f55a4df523b3ef8460405161091b9190610b00565b60405180910390a36001905092915050565b6005602052816000526040600020602052806000526040600020600091509150505481565b60008135905061096181610cdd565b92915050565b60008135905061097681610cf4565b92915050565b60006020828403121561098e57600080fd5b600061099c84828501610952565b91505092915050565b600080604083850312156109b857600080fd5b60006109c685828601610952565b92505060206109d785828601610952565b9150509250929050565b6000806000606084860312156109f657600080fd5b6000610a0486828701610952565b9350506020610a1586828701610952565b9250506040610a2686828701610967565b9150509250925092565b60008060408385031215610a4357600080fd5b6000610a5185828601610952565b9250506020610a6285828601610967565b9150509250929050565b610a7581610bd3565b82525050565b6000610a8682610b1b565b610a908185610b26565b9350610aa0818560208601610c09565b610aa981610ccc565b840191505092915050565b610abd81610bff565b82525050565b6000602082019050610ad86000830184610a6c565b92915050565b60006020820190508181036000830152610af88184610a7b565b905092915050565b6000602082019050610b156000830184610ab4565b92915050565b600081519050919050565b600082825260208201905092915050565b6000610b4282610bff565b9150610b4d83610bff565b9250827fffffffffffffffffffffffffffffffffffffffffffffffffffffffffffffffff03821115610b8257610b81610c6e565b5b828201905092915050565b6000610b9882610bff565b9150610ba383610bff565b925082821015610bb657610bb5610c6e565b5b828203905092915050565b6000610bcc82610bdf565b9050919050565b60008115159050919050565b600073ffffffffffffffffffffffffffffffffffffffff82169050919050565b6000819050919050565b60005b83811015610c27578082015181840152602081019050610c0c565b83811115610c36576000848401525b50505050565b60006002820490506001821680610c5457607f821691505b60208210811415610c6857610c67610c9d565b5b50919050565b7f4e487b7100000000000000000000000000000000000000000000000000000000600052601160045260246000fd5b7f4e487b7100000000000000000000000000000000000000000000000000000000600052602260045260246000fd5b6000601f19601f8301169050919050565b610ce681610bc1565b8114610cf157600080fd5b50565b610cfd81610bff565b8114610d0857600080fd5b5056fea2646970667358221220359347b1a1e7892f59ad8b66f598ee3d0b6631c90cf8b230c5092ccf2d8d4c1d64736f6c63430008010033",
  "immutableReferences": {},
  "source": "// SPDX-License-Identifier: MIT\r\npragma solidity >=0.8.1;\r\n\r\ncontract MetoToken {\r\n    string public name = 'Meto Token';\r\n    string public symbol = 'MT';\r\n    string public standard = 'Meto Token v1.0';\r\n    uint256 public totalSupply = 1000000000000000000000000;\r\n    mapping (address => uint) public balanceOf;\r\n    mapping (address => mapping(address => uint256)) public allowance;\r\n\r\n    event Transfer(address indexed _from, address indexed _to, uint256 _value);\r\n    //I the owner approve the spender to spend _value amount of tokens\r\n    event Approval(address indexed _owner, address indexed _spender, uint256 _value);\r\n\r\n    constructor() {\r\n        balanceOf[msg.sender] = totalSupply;\r\n    }\r\n\r\n    function transfer(address _to, uint256 _value) public returns (bool success) {\r\n        require(balanceOf[msg.sender] >= _value);\r\n        //now to transfer the tokens\r\n        balanceOf[msg.sender] -= _value;\r\n        balanceOf[_to] += _value;\r\n        //emit transfer event\r\n        emit Transfer(msg.sender, _to, _value);\r\n        return true;\r\n    }\r\n\r\n    //spender is the account that we want to approve to send on our behalf (e.g. address of an exchange)\r\n    function approve(address _spender, uint256 _value) public returns (bool success) {\r\n        //handle allowance and approve event\r\n        allowance[msg.sender][_spender] = _value;\r\n        emit Approval(msg.sender, _spender, _value);\r\n        return true;\r\n    }\r\n\r\n    //delegated transfer\r\n    //3 accounts msg.sender, transfer from and transfer to\r\n    function transferFrom(address _from, address _to, uint256 _value) public returns (bool success) {\r\n        //require _from to have enough tokens and to have a big enough allowance\r\n        require(_value <= balanceOf[_from]);\r\n        //require a big enough allowance - msg.sender is approved to send on behalf of _from\r\n        require(_value <= allowance[_from][msg.sender]);\r\n        //change balance\r\n        balanceOf[_from] -= _value;\r\n        balanceOf[_to] += _value;\r\n        //update allowance\r\n        allowance[_from][msg.sender] -= _value;\r\n        //emit Transfer event\r\n        emit Transfer(_from, _to, _value);\r\n        return true;\r\n    }\r\n\r\n    function getBalanceOf(address _walletAddress) external view returns (uint) {\r\n        return balanceOf[_walletAddress];\r\n    }\r\n}",
  "sourcePath": "C:\\Users\\Metodi\\Desktop\\ProjectsDapp\\defi-react-app\\contracts\\MetoToken.sol",
  "compiler": {
    "name": "solc",
    "version": "0.8.1+commit.df193b15.Emscripten.clang"
  },
  "schemaVersion": "3.3.2",
  "updatedAt": "2021-03-07T11:53:47.732Z",
  "networkType": "ethereum",
  "devdoc": {
    "kind": "dev",
    "methods": {},
    "version": 1
  },
  "userdoc": {
    "kind": "user",
    "methods": {},
    "version": 1
  }
}