{
  "contractName": "TokenFarm",
  "abi": [
    {
      "inputs": [
        {
          "internalType": "contract MetoTokenV2Farm",
          "name": "_metoTokenV2",
          "type": "address"
        },
        {
          "internalType": "contract DaiToken",
          "name": "_daiToken",
          "type": "address"
        }
      ],
      "stateMutability": "nonpayable",
      "type": "constructor"
    },
    {
      "inputs": [],
      "name": "daiToken",
      "outputs": [
        {
          "internalType": "contract DaiToken",
          "name": "",
          "type": "address"
        }
      ],
      "stateMutability": "view",
      "type": "function",
      "constant": true
    },
    {
      "inputs": [],
      "name": "metoTokenV2",
      "outputs": [
        {
          "internalType": "contract MetoTokenV2Farm",
          "name": "",
          "type": "address"
        }
      ],
      "stateMutability": "view",
      "type": "function",
      "constant": true
    },
    {
      "inputs": [],
      "name": "name",
      "outputs": [
        {
          "internalType": "string",
          "name": "",
          "type": "string"
        }
      ],
      "stateMutability": "view",
      "type": "function",
      "constant": true
    }
  ],
  "bytecode": "0x60806040526040518060400160405280600f81526020017f4d65746f20546f6b656e204661726d00000000000000000000000000000000008152506000908051906020019061004f929190610123565b5034801561005c57600080fd5b5060405161042e38038061042e8339818101604052604081101561007f57600080fd5b81019080805190602001909291908051906020019092919050505081600160006101000a81548173ffffffffffffffffffffffffffffffffffffffff021916908373ffffffffffffffffffffffffffffffffffffffff16021790555080600260006101000a81548173ffffffffffffffffffffffffffffffffffffffff021916908373ffffffffffffffffffffffffffffffffffffffff16021790555050506101ce565b828054600181600116156101000203166002900490600052602060002090601f01602090048101928261015957600085556101a0565b82601f1061017257805160ff19168380011785556101a0565b828001600101855582156101a0579182015b8281111561019f578251825591602001919060010190610184565b5b5090506101ad91906101b1565b5090565b5b808211156101ca5760008160009055506001016101b2565b5090565b610251806101dd6000396000f3fe608060405234801561001057600080fd5b50600436106100415760003560e01c806306fdde031461004657806399fe3114146100c9578063be22f546146100fd575b600080fd5b61004e610131565b6040518080602001828103825283818151815260200191508051906020019080838360005b8381101561008e578082015181840152602081019050610073565b50505050905090810190601f1680156100bb5780820380516001836020036101000a031916815260200191505b509250505060405180910390f35b6100d16101cf565b604051808273ffffffffffffffffffffffffffffffffffffffff16815260200191505060405180910390f35b6101056101f5565b604051808273ffffffffffffffffffffffffffffffffffffffff16815260200191505060405180910390f35b60008054600181600116156101000203166002900480601f0160208091040260200160405190810160405280929190818152602001828054600181600116156101000203166002900480156101c75780601f1061019c576101008083540402835291602001916101c7565b820191906000526020600020905b8154815290600101906020018083116101aa57829003601f168201915b505050505081565b600160009054906101000a900473ffffffffffffffffffffffffffffffffffffffff1681565b600260009054906101000a900473ffffffffffffffffffffffffffffffffffffffff168156fea26469706673582212201f5827173e2e0ddec7c9d281c40a0b76920352d25f614aee2819923186a9ba1764736f6c63430007050033",
  "immutableReferences": {},
  "source": "// SPDX-License-Identifier: MIT\r\npragma solidity >= 0.7.0 <=0.7.5;\r\nimport \"./MetoTokenV2Farm.sol\";\r\nimport \"./DaiToken.sol\";\r\n\r\ncontract TokenFarm {\r\n    string public name = \"Meto Token Farm\";\r\n    MetoTokenV2Farm public metoTokenV2;\r\n    DaiToken public daiToken;\r\n\r\n    constructor(MetoTokenV2Farm _metoTokenV2, DaiToken _daiToken) {\r\n        //in order to use them in other functions\r\n        metoTokenV2 = _metoTokenV2;\r\n        daiToken = _daiToken;\r\n    }\r\n\r\n}",
  "sourcePath": "C:/Users/Metodi/Desktop/ProjectsDapp/defi-react-app/contracts/TokenFarm.sol",
  "compiler": {
    "name": "solc",
    "version": "0.7.5+commit.eb77ed08.Emscripten.clang"
  },
  "schemaVersion": "3.3.2",
  "updatedAt": "2020-11-21T16:58:58.592Z",
  "networkType": "ethereum",
  "devdoc": {
    "kind": "dev",
    "methods": {},
    "version": 1
  },
  "userdoc": {
    "kind": "user",
    "methods": {},
    "version": 1
  }
}