{
  "contractName": "TokenFarm",
  "abi": [
    {
      "inputs": [
        {
          "internalType": "contract MetoTokenV2Farm",
          "name": "_metoTokenV2",
          "type": "address"
        },
        {
          "internalType": "contract DaiToken",
          "name": "_daiToken",
          "type": "address"
        }
      ],
      "stateMutability": "nonpayable",
      "type": "constructor"
    },
    {
      "anonymous": false,
      "inputs": [
        {
          "indexed": false,
          "internalType": "address",
          "name": "to",
          "type": "address"
        },
        {
          "indexed": false,
          "internalType": "uint256",
          "name": "amount",
          "type": "uint256"
        }
      ],
      "name": "Issued",
      "type": "event"
    },
    {
      "anonymous": false,
      "inputs": [
        {
          "indexed": false,
          "internalType": "address",
          "name": "by",
          "type": "address"
        },
        {
          "indexed": false,
          "internalType": "uint256",
          "name": "amount",
          "type": "uint256"
        }
      ],
      "name": "Staked",
      "type": "event"
    },
    {
      "anonymous": false,
      "inputs": [
        {
          "indexed": false,
          "internalType": "address",
          "name": "by",
          "type": "address"
        },
        {
          "indexed": false,
          "internalType": "uint256",
          "name": "amount",
          "type": "uint256"
        }
      ],
      "name": "Withdrawn",
      "type": "event"
    },
    {
      "inputs": [],
      "name": "daiToken",
      "outputs": [
        {
          "internalType": "contract DaiToken",
          "name": "",
          "type": "address"
        }
      ],
      "stateMutability": "view",
      "type": "function",
      "constant": true
    },
    {
      "inputs": [
        {
          "internalType": "address",
          "name": "",
          "type": "address"
        }
      ],
      "name": "hasStaked",
      "outputs": [
        {
          "internalType": "bool",
          "name": "",
          "type": "bool"
        }
      ],
      "stateMutability": "view",
      "type": "function",
      "constant": true
    },
    {
      "inputs": [
        {
          "internalType": "address",
          "name": "",
          "type": "address"
        }
      ],
      "name": "isStaking",
      "outputs": [
        {
          "internalType": "bool",
          "name": "",
          "type": "bool"
        }
      ],
      "stateMutability": "view",
      "type": "function",
      "constant": true
    },
    {
      "inputs": [],
      "name": "metoTokenV2",
      "outputs": [
        {
          "internalType": "contract MetoTokenV2Farm",
          "name": "",
          "type": "address"
        }
      ],
      "stateMutability": "view",
      "type": "function",
      "constant": true
    },
    {
      "inputs": [],
      "name": "name",
      "outputs": [
        {
          "internalType": "string",
          "name": "",
          "type": "string"
        }
      ],
      "stateMutability": "view",
      "type": "function",
      "constant": true
    },
    {
      "inputs": [],
      "name": "owner",
      "outputs": [
        {
          "internalType": "address",
          "name": "",
          "type": "address"
        }
      ],
      "stateMutability": "view",
      "type": "function",
      "constant": true
    },
    {
      "inputs": [
        {
          "internalType": "uint256",
          "name": "",
          "type": "uint256"
        }
      ],
      "name": "stakers",
      "outputs": [
        {
          "internalType": "address",
          "name": "",
          "type": "address"
        }
      ],
      "stateMutability": "view",
      "type": "function",
      "constant": true
    },
    {
      "inputs": [
        {
          "internalType": "address",
          "name": "",
          "type": "address"
        }
      ],
      "name": "stakingBalance",
      "outputs": [
        {
          "internalType": "uint256",
          "name": "",
          "type": "uint256"
        }
      ],
      "stateMutability": "view",
      "type": "function",
      "constant": true
    },
    {
      "inputs": [],
      "name": "getStakers",
      "outputs": [
        {
          "internalType": "address[]",
          "name": "",
          "type": "address[]"
        }
      ],
      "stateMutability": "view",
      "type": "function",
      "constant": true
    },
    {
      "inputs": [
        {
          "internalType": "uint256",
          "name": "_amount",
          "type": "uint256"
        }
      ],
      "name": "stakeTokens",
      "outputs": [],
      "stateMutability": "nonpayable",
      "type": "function"
    },
    {
      "inputs": [
        {
          "internalType": "uint256",
          "name": "_amount",
          "type": "uint256"
        }
      ],
      "name": "withdrawTokens",
      "outputs": [],
      "stateMutability": "nonpayable",
      "type": "function"
    },
    {
      "inputs": [],
      "name": "issueTokens",
      "outputs": [],
      "stateMutability": "nonpayable",
      "type": "function"
    }
  ],
  "bytecode": "0x60806040526040518060400160405280600a81526020017f546f6b656e204661726d0000000000000000000000000000000000000000000081525060009080519060200190620000519291906200016b565b503480156200005f57600080fd5b50604051620015f6380380620015f6833981810160405260408110156200008557600080fd5b81019080805190602001909291908051906020019092919050505081600260006101000a81548173ffffffffffffffffffffffffffffffffffffffff021916908373ffffffffffffffffffffffffffffffffffffffff16021790555080600360006101000a81548173ffffffffffffffffffffffffffffffffffffffff021916908373ffffffffffffffffffffffffffffffffffffffff16021790555033600160006101000a81548173ffffffffffffffffffffffffffffffffffffffff021916908373ffffffffffffffffffffffffffffffffffffffff160217905550505062000221565b828054600181600116156101000203166002900490600052602060002090601f016020900481019282620001a35760008555620001ef565b82601f10620001be57805160ff1916838001178555620001ef565b82800160010185558215620001ef579182015b82811115620001ee578251825591602001919060010190620001d1565b5b509050620001fe919062000202565b5090565b5b808211156200021d57600081600090555060010162000203565b5090565b6113c580620002316000396000f3fe608060405234801561001057600080fd5b50600436106100b45760003560e01c80637547c7a3116100715780637547c7a3146102855780638da5cb5b146102b357806399fe3114146102e7578063be22f5461461031b578063c93c8f341461034f578063fd5e6dd1146103a9576100b4565b806306fdde03146100b9578063315a095d1461013c57806343352d611461016a57806345bc78ab146101c957806360ab5852146102215780636f49712b1461022b575b600080fd5b6100c1610401565b6040518080602001828103825283818151815260200191508051906020019080838360005b838110156101015780820151818401526020810190506100e6565b50505050905090810190601f16801561012e5780820380516001836020036101000a031916815260200191505b509250505060405180910390f35b6101686004803603602081101561015257600080fd5b810190808035906020019092919050505061049f565b005b610172610a20565b6040518080602001828103825283818151815260200191508051906020019060200280838360005b838110156101b557808201518184015260208101905061019a565b505050509050019250505060405180910390f35b61020b600480360360208110156101df57600080fd5b81019080803573ffffffffffffffffffffffffffffffffffffffff169060200190929190505050610aae565b6040518082815260200191505060405180910390f35b610229610ac6565b005b61026d6004803603602081101561024157600080fd5b81019080803573ffffffffffffffffffffffffffffffffffffffff169060200190929190505050610e8a565b60405180821515815260200191505060405180910390f35b6102b16004803603602081101561029b57600080fd5b8101908080359060200190929190505050610eaa565b005b6102bb611217565b604051808273ffffffffffffffffffffffffffffffffffffffff16815260200191505060405180910390f35b6102ef61123d565b604051808273ffffffffffffffffffffffffffffffffffffffff16815260200191505060405180910390f35b610323611263565b604051808273ffffffffffffffffffffffffffffffffffffffff16815260200191505060405180910390f35b6103916004803603602081101561036557600080fd5b81019080803573ffffffffffffffffffffffffffffffffffffffff169060200190929190505050611289565b60405180821515815260200191505060405180910390f35b6103d5600480360360208110156103bf57600080fd5b81019080803590602001909291905050506112a9565b604051808273ffffffffffffffffffffffffffffffffffffffff16815260200191505060405180910390f35b60008054600181600116156101000203166002900480601f0160208091040260200160405190810160405280929190818152602001828054600181600116156101000203166002900480156104975780601f1061046c57610100808354040283529160200191610497565b820191906000526020600020905b81548152906001019060200180831161047a57829003601f168201915b505050505081565b60008111610515576040517f08c379a00000000000000000000000000000000000000000000000000000000081526004018080602001828103825260128152602001807f416d6f756e742063616e6e6f742062652030000000000000000000000000000081525060200191505060405180910390fd5b600460003373ffffffffffffffffffffffffffffffffffffffff1673ffffffffffffffffffffffffffffffffffffffff168152602001908152602001600020548111156105ad576040517f08c379a000000000000000000000000000000000000000000000000000000000815260040180806020018281038252603a8152602001806112e9603a913960400191505060405180910390fd5b600560003373ffffffffffffffffffffffffffffffffffffffff1673ffffffffffffffffffffffffffffffffffffffff16815260200190815260200160002060009054906101000a900460ff1661064f576040517f08c379a00000000000000000000000000000000000000000000000000000000081526004018080602001828103825260368152602001806113236036913960400191505060405180910390fd5b600360009054906101000a900473ffffffffffffffffffffffffffffffffffffffff1673ffffffffffffffffffffffffffffffffffffffff1663a9059cbb33836040518363ffffffff1660e01b8152600401808373ffffffffffffffffffffffffffffffffffffffff16815260200182815260200192505050602060405180830381600087803b1580156106e257600080fd5b505af11580156106f6573d6000803e3d6000fd5b505050506040513d602081101561070c57600080fd5b81019080805190602001909291905050505080600460003373ffffffffffffffffffffffffffffffffffffffff1673ffffffffffffffffffffffffffffffffffffffff168152602001908152602001600020600082825403925050819055506000600460003373ffffffffffffffffffffffffffffffffffffffff1673ffffffffffffffffffffffffffffffffffffffff1681526020019081526020016000205414156109c85760006007905060005b81805490508110156109c5573373ffffffffffffffffffffffffffffffffffffffff168282815481106107eb57fe5b9060005260206000200160009054906101000a900473ffffffffffffffffffffffffffffffffffffffff1673ffffffffffffffffffffffffffffffffffffffff1614156109b8578160018380549050038154811061084557fe5b9060005260206000200160009054906101000a900473ffffffffffffffffffffffffffffffffffffffff1682828154811061087c57fe5b9060005260206000200160006101000a81548173ffffffffffffffffffffffffffffffffffffffff021916908373ffffffffffffffffffffffffffffffffffffffff160217905550818054806108ce57fe5b6001900381819060005260206000200160006101000a81549073ffffffffffffffffffffffffffffffffffffffff021916905590556000600560003373ffffffffffffffffffffffffffffffffffffffff1673ffffffffffffffffffffffffffffffffffffffff16815260200190815260200160002060006101000a81548160ff0219169083151502179055506000600660003373ffffffffffffffffffffffffffffffffffffffff1673ffffffffffffffffffffffffffffffffffffffff16815260200190815260200160002060006101000a81548160ff0219169083151502179055506109c5565b80806001019150506107bc565b50505b7f7084f5476618d8e60b11ef0d7d3f06914655adb8793e28ff7f018d4c76d505d53382604051808373ffffffffffffffffffffffffffffffffffffffff1681526020018281526020019250505060405180910390a150565b60606007805480602002602001604051908101604052809291908181526020018280548015610aa457602002820191906000526020600020905b8160009054906101000a900473ffffffffffffffffffffffffffffffffffffffff1673ffffffffffffffffffffffffffffffffffffffff1681526020019060010190808311610a5a575b5050505050905090565b60046020528060005260406000206000915090505481565b600160009054906101000a900473ffffffffffffffffffffffffffffffffffffffff1673ffffffffffffffffffffffffffffffffffffffff163373ffffffffffffffffffffffffffffffffffffffff1614610b6c576040517f08c379a00000000000000000000000000000000000000000000000000000000081526004018080602001828103825260378152602001806113596037913960400191505060405180910390fd5b60005b600780549050811015610e875760006004600060078481548110610b8f57fe5b9060005260206000200160009054906101000a900473ffffffffffffffffffffffffffffffffffffffff1673ffffffffffffffffffffffffffffffffffffffff1673ffffffffffffffffffffffffffffffffffffffff168152602001908152602001600020541115610e7a57600260009054906101000a900473ffffffffffffffffffffffffffffffffffffffff1673ffffffffffffffffffffffffffffffffffffffff1663a9059cbb60078381548110610c4657fe5b9060005260206000200160009054906101000a900473ffffffffffffffffffffffffffffffffffffffff166004600060078681548110610c8257fe5b9060005260206000200160009054906101000a900473ffffffffffffffffffffffffffffffffffffffff1673ffffffffffffffffffffffffffffffffffffffff1673ffffffffffffffffffffffffffffffffffffffff168152602001908152602001600020546040518363ffffffff1660e01b8152600401808373ffffffffffffffffffffffffffffffffffffffff16815260200182815260200192505050602060405180830381600087803b158015610d3b57600080fd5b505af1158015610d4f573d6000803e3d6000fd5b505050506040513d6020811015610d6557600080fd5b8101908080519060200190929190505050507fa59f12e354e8cd10bb74c559844c2dd69a5458e31fe56c7594c62ca57480509a60078281548110610da557fe5b9060005260206000200160009054906101000a900473ffffffffffffffffffffffffffffffffffffffff166004600060078581548110610de157fe5b9060005260206000200160009054906101000a900473ffffffffffffffffffffffffffffffffffffffff1673ffffffffffffffffffffffffffffffffffffffff1673ffffffffffffffffffffffffffffffffffffffff16815260200190815260200160002054604051808373ffffffffffffffffffffffffffffffffffffffff1681526020018281526020019250505060405180910390a15b8080600101915050610b6f565b50565b60066020528060005260406000206000915054906101000a900460ff1681565b60008111610f20576040517f08c379a00000000000000000000000000000000000000000000000000000000081526004018080602001828103825260128152602001807f416d6f756e742063616e6e6f742062652030000000000000000000000000000081525060200191505060405180910390fd5b600360009054906101000a900473ffffffffffffffffffffffffffffffffffffffff1673ffffffffffffffffffffffffffffffffffffffff166323b872dd3330846040518463ffffffff1660e01b8152600401808473ffffffffffffffffffffffffffffffffffffffff1681526020018373ffffffffffffffffffffffffffffffffffffffff1681526020018281526020019350505050602060405180830381600087803b158015610fd157600080fd5b505af1158015610fe5573d6000803e3d6000fd5b505050506040513d6020811015610ffb57600080fd5b81019080805190602001909291905050505080600460003373ffffffffffffffffffffffffffffffffffffffff1673ffffffffffffffffffffffffffffffffffffffff16815260200190815260200160002060008282540192505081905550600560003373ffffffffffffffffffffffffffffffffffffffff1673ffffffffffffffffffffffffffffffffffffffff16815260200190815260200160002060009054906101000a900460ff1661110f576007339080600181540180825580915050600190039060005260206000200160009091909190916101000a81548173ffffffffffffffffffffffffffffffffffffffff021916908373ffffffffffffffffffffffffffffffffffffffff1602179055505b6001600660003373ffffffffffffffffffffffffffffffffffffffff1673ffffffffffffffffffffffffffffffffffffffff16815260200190815260200160002060006101000a81548160ff0219169083151502179055506001600560003373ffffffffffffffffffffffffffffffffffffffff1673ffffffffffffffffffffffffffffffffffffffff16815260200190815260200160002060006101000a81548160ff0219169083151502179055507f9e71bc8eea02a63969f509818f2dafb9254532904319f9dbda79b67bd34a5f3d3382604051808373ffffffffffffffffffffffffffffffffffffffff1681526020018281526020019250505060405180910390a150565b600160009054906101000a900473ffffffffffffffffffffffffffffffffffffffff1681565b600260009054906101000a900473ffffffffffffffffffffffffffffffffffffffff1681565b600360009054906101000a900473ffffffffffffffffffffffffffffffffffffffff1681565b60056020528060005260406000206000915054906101000a900460ff1681565b600781815481106112b957600080fd5b906000526020600020016000915054906101000a900473ffffffffffffffffffffffffffffffffffffffff168156fe43616e6e6f74207769746864726177206d6f7265207468616e20796f75206861766520696e20796f7572207374616b696e672062616c616e636543616c6c6572206d7573742068617665207374616b656420696e206f7264657220746f20776974686472617720736f6d657468696e674f6e6c7920746865206f776e6572206f662074686520746f6b656e206661726d2063616e2063616c6c20746869732066756e6374696f6ea264697066735822122054d9544eea5fef48375e10d63b3204200dc321d5cdbf819b484bc4922865631964736f6c63430007050033",
  "immutableReferences": {},
  "source": "// SPDX-License-Identifier: MIT\r\npragma solidity >= 0.7.0 <=0.7.5;\r\nimport \"./MetoTokenV2Farm.sol\";\r\nimport \"./DaiToken.sol\";\r\n\r\ncontract TokenFarm {\r\n    string public name = \"Token Farm\";\r\n    address public owner;\r\n    MetoTokenV2Farm public metoTokenV2;\r\n    DaiToken public daiToken;\r\n\r\n    mapping(address => uint256) public stakingBalance;\r\n    mapping(address => bool) public hasStaked;\r\n    mapping(address => bool) public isStaking;\r\n\r\n    address[] public stakers;\r\n\r\n    event Staked(address by, uint256 amount);\r\n    event Withdrawn(address by, uint256 amount);\r\n    event Issued(address to, uint256 amount);\r\n\r\n    constructor(MetoTokenV2Farm _metoTokenV2, DaiToken _daiToken) {\r\n        //in order to use them in other functions\r\n        metoTokenV2 = _metoTokenV2;\r\n        daiToken = _daiToken;\r\n        owner = msg.sender;\r\n    }\r\n\r\n    modifier onlyOwner {\r\n        require(msg.sender == owner, \"Only the owner of the token farm can call this function\");\r\n        _;\r\n    }\r\n\r\n    function getStakers() public view returns(address[] memory) {\r\n        return stakers;\r\n    }\r\n\r\n    //stake tokens - investor puts money into the app (deposit)\r\n\r\n    function stakeTokens(uint256 _amount) public {\r\n        require(_amount > 0, \"Amount cannot be 0\");\r\n        //transfer mock dai tokens to this contract for staking\r\n\r\n        daiToken.transferFrom(msg.sender, address(this), _amount);\r\n\r\n        //update staking balance\r\n        stakingBalance[msg.sender] += _amount;\r\n\r\n        // add user to stakers array only if they havent staked already,\r\n        // because later we'd want to give them only once the issued tokens\r\n        if (!hasStaked[msg.sender]) {\r\n            stakers.push(msg.sender);\r\n        }\r\n        //update staking status\r\n        isStaking[msg.sender] = true;\r\n        hasStaked[msg.sender] = true;\r\n\r\n        emit Staked(msg.sender, _amount);\r\n    }\r\n\r\n    //unstake tokens - investor withdraws money (withdraw)\r\n    //withdraw and arbitrary amount of tokens\r\n    function withdrawTokens(uint256 _amount) public {\r\n        require(_amount > 0, \"Amount cannot be 0\");\r\n        require(_amount <= stakingBalance[msg.sender], \"Cannot withdraw more than you have in your staking balance\");\r\n        require(hasStaked[msg.sender], \"Caller must have staked in order to withdraw something\");\r\n        //transfer mock dai tokens to this contract for staking\r\n\r\n        daiToken.transfer(msg.sender, _amount);\r\n\r\n        //update staking balance\r\n        stakingBalance[msg.sender] -= _amount;\r\n\r\n        //if account has withdrawn everything we need to remove them from the stakers array\r\n        \r\n        if (stakingBalance[msg.sender] == 0) {\r\n            address[] storage arr = stakers;\r\n            for (uint i=0; i < arr.length; i++) {\r\n                if (arr[i] == msg.sender) {\r\n                    arr[i] = arr[arr.length - 1];\r\n                    arr.pop();\r\n                    //update staking status\r\n                    hasStaked[msg.sender] = false;\r\n                    isStaking[msg.sender] = false;\r\n                    break;\r\n                }\r\n            }\r\n        }\r\n        emit Withdrawn(msg.sender, _amount);\r\n    }\r\n\r\n    //issue tokens\r\n    function issueTokens() public onlyOwner {\r\n        //issue tokens which are the same amount as the tokens the user has staked\r\n        for (uint256 i = 0; i < stakers.length; i++) {\r\n            if (stakingBalance[stakers[i]] > 0 ) {\r\n                metoTokenV2.transfer(stakers[i], stakingBalance[stakers[i]]);\r\n                emit Issued(stakers[i], stakingBalance[stakers[i]]);\r\n            }\r\n        }\r\n    }\r\n}",
  "sourcePath": "C:/Users/Metodi/Desktop/ProjectsDapp/defi-react-app/contracts/TokenFarm.sol",
  "compiler": {
    "name": "solc",
    "version": "0.7.5+commit.eb77ed08.Emscripten.clang"
  },
  "schemaVersion": "3.3.2",
  "updatedAt": "2020-12-09T10:52:51.063Z",
  "networkType": "ethereum",
  "devdoc": {
    "kind": "dev",
    "methods": {},
    "version": 1
  },
  "userdoc": {
    "kind": "user",
    "methods": {},
    "version": 1
  }
}