{
  "contractName": "TokenFarm",
  "abi": [
    {
      "inputs": [
        {
          "internalType": "contract MetoToken",
          "name": "_metoToken",
          "type": "address"
        },
        {
          "internalType": "contract DaiToken",
          "name": "_daiToken",
          "type": "address"
        }
      ],
      "stateMutability": "nonpayable",
      "type": "constructor"
    },
    {
      "anonymous": false,
      "inputs": [
        {
          "indexed": false,
          "internalType": "address",
          "name": "by",
          "type": "address"
        },
        {
          "indexed": false,
          "internalType": "uint256",
          "name": "amount",
          "type": "uint256"
        }
      ],
      "name": "Staked",
      "type": "event"
    },
    {
      "anonymous": false,
      "inputs": [
        {
          "indexed": false,
          "internalType": "address",
          "name": "by",
          "type": "address"
        },
        {
          "indexed": false,
          "internalType": "uint256",
          "name": "amount",
          "type": "uint256"
        }
      ],
      "name": "Withdrawn",
      "type": "event"
    },
    {
      "inputs": [],
      "name": "daiToken",
      "outputs": [
        {
          "internalType": "contract DaiToken",
          "name": "",
          "type": "address"
        }
      ],
      "stateMutability": "view",
      "type": "function",
      "constant": true
    },
    {
      "inputs": [
        {
          "internalType": "address",
          "name": "",
          "type": "address"
        }
      ],
      "name": "hasStaked",
      "outputs": [
        {
          "internalType": "bool",
          "name": "",
          "type": "bool"
        }
      ],
      "stateMutability": "view",
      "type": "function",
      "constant": true
    },
    {
      "inputs": [],
      "name": "metoToken",
      "outputs": [
        {
          "internalType": "contract MetoToken",
          "name": "",
          "type": "address"
        }
      ],
      "stateMutability": "view",
      "type": "function",
      "constant": true
    },
    {
      "inputs": [],
      "name": "name",
      "outputs": [
        {
          "internalType": "string",
          "name": "",
          "type": "string"
        }
      ],
      "stateMutability": "view",
      "type": "function",
      "constant": true
    },
    {
      "inputs": [],
      "name": "owner",
      "outputs": [
        {
          "internalType": "address",
          "name": "",
          "type": "address"
        }
      ],
      "stateMutability": "view",
      "type": "function",
      "constant": true
    },
    {
      "inputs": [
        {
          "internalType": "uint256",
          "name": "",
          "type": "uint256"
        }
      ],
      "name": "stakers",
      "outputs": [
        {
          "internalType": "address",
          "name": "",
          "type": "address"
        }
      ],
      "stateMutability": "view",
      "type": "function",
      "constant": true
    },
    {
      "inputs": [
        {
          "internalType": "address",
          "name": "",
          "type": "address"
        }
      ],
      "name": "stakingBalance",
      "outputs": [
        {
          "internalType": "uint256",
          "name": "",
          "type": "uint256"
        }
      ],
      "stateMutability": "view",
      "type": "function",
      "constant": true
    },
    {
      "inputs": [
        {
          "internalType": "address",
          "name": "",
          "type": "address"
        }
      ],
      "name": "timeOfStakingFor",
      "outputs": [
        {
          "internalType": "uint256",
          "name": "",
          "type": "uint256"
        }
      ],
      "stateMutability": "view",
      "type": "function",
      "constant": true
    },
    {
      "inputs": [],
      "name": "getStakers",
      "outputs": [
        {
          "internalType": "address[]",
          "name": "",
          "type": "address[]"
        }
      ],
      "stateMutability": "view",
      "type": "function",
      "constant": true
    },
    {
      "inputs": [
        {
          "internalType": "uint256",
          "name": "_amount",
          "type": "uint256"
        }
      ],
      "name": "stakeTokens",
      "outputs": [],
      "stateMutability": "nonpayable",
      "type": "function"
    },
    {
      "inputs": [
        {
          "internalType": "uint256",
          "name": "_amount",
          "type": "uint256"
        }
      ],
      "name": "withdrawTokens",
      "outputs": [],
      "stateMutability": "nonpayable",
      "type": "function"
    }
  ],
  "bytecode": "0x60806040526040518060400160405280600a81526020017f546f6b656e204661726d00000000000000000000000000000000000000000000815250600090805190602001906200005192919062000150565b503480156200005f57600080fd5b50604051620019613803806200196183398181016040528101906200008591906200022e565b81600260006101000a81548173ffffffffffffffffffffffffffffffffffffffff021916908373ffffffffffffffffffffffffffffffffffffffff16021790555080600360006101000a81548173ffffffffffffffffffffffffffffffffffffffff021916908373ffffffffffffffffffffffffffffffffffffffff16021790555033600160006101000a81548173ffffffffffffffffffffffffffffffffffffffff021916908373ffffffffffffffffffffffffffffffffffffffff160217905550505062000364565b8280546200015e90620002cb565b90600052602060002090601f016020900481019282620001825760008555620001ce565b82601f106200019d57805160ff1916838001178555620001ce565b82800160010185558215620001ce579182015b82811115620001cd578251825591602001919060010190620001b0565b5b509050620001dd9190620001e1565b5090565b5b80821115620001fc576000816000905550600101620001e2565b5090565b600081519050620002118162000330565b92915050565b60008151905062000228816200034a565b92915050565b600080604083850312156200024257600080fd5b6000620002528582860162000217565b9250506020620002658582860162000200565b9150509250929050565b60006200027c82620002ab565b9050919050565b600062000290826200026f565b9050919050565b6000620002a4826200026f565b9050919050565b600073ffffffffffffffffffffffffffffffffffffffff82169050919050565b60006002820490506001821680620002e457607f821691505b60208210811415620002fb57620002fa62000301565b5b50919050565b7f4e487b7100000000000000000000000000000000000000000000000000000000600052602260045260246000fd5b6200033b8162000283565b81146200034757600080fd5b50565b620003558162000297565b81146200036157600080fd5b50565b6115ed80620003746000396000f3fe608060405234801561001057600080fd5b50600436106100a95760003560e01c80636ddd0f5f116100715780636ddd0f5f146101665780637547c7a3146101845780638da5cb5b146101a0578063be22f546146101be578063c93c8f34146101dc578063fd5e6dd11461020c576100a9565b806306fdde03146100ae578063315a095d146100cc5780633e4808e4146100e857806343352d611461011857806345bc78ab14610136575b600080fd5b6100b661023c565b6040516100c391906110c8565b60405180910390f35b6100e660048036038101906100e19190610e3f565b6102ca565b005b61010260048036038101906100fd9190610ded565b610947565b60405161010f919061114a565b60405180910390f35b61012061095f565b60405161012d9190611055565b60405180910390f35b610150600480360381019061014b9190610ded565b6109ed565b60405161015d919061114a565b60405180910390f35b61016e610a05565b60405161017b91906110ad565b60405180910390f35b61019e60048036038101906101999190610e3f565b610a2b565b005b6101a8610d03565b6040516101b59190610fda565b60405180910390f35b6101c6610d29565b6040516101d39190611092565b60405180910390f35b6101f660048036038101906101f19190610ded565b610d4f565b6040516102039190611077565b60405180910390f35b61022660048036038101906102219190610e3f565b610d6f565b6040516102339190610fda565b60405180910390f35b6000805461024990611392565b80601f016020809104026020016040519081016040528092919081815260200182805461027590611392565b80156102c25780601f10610297576101008083540402835291602001916102c2565b820191906000526020600020905b8154815290600101906020018083116102a557829003601f168201915b505050505081565b6000811161030d576040517f08c379a00000000000000000000000000000000000000000000000000000000081526004016103049061112a565b60405180910390fd5b600460003373ffffffffffffffffffffffffffffffffffffffff1673ffffffffffffffffffffffffffffffffffffffff1681526020019081526020016000205481111561038f576040517f08c379a0000000000000000000000000000000000000000000000000000000008152600401610386906110ea565b60405180910390fd5b600560003373ffffffffffffffffffffffffffffffffffffffff1673ffffffffffffffffffffffffffffffffffffffff16815260200190815260200160002060009054906101000a900460ff1661041b576040517f08c379a00000000000000000000000000000000000000000000000000000000081526004016104129061110a565b60405180910390fd5b4262015180600660003373ffffffffffffffffffffffffffffffffffffffff1673ffffffffffffffffffffffffffffffffffffffff1681526020019081526020016000205461046a91906111ba565b111561047557600080fd5b600360009054906101000a900473ffffffffffffffffffffffffffffffffffffffff1673ffffffffffffffffffffffffffffffffffffffff1663a9059cbb33836040518363ffffffff1660e01b81526004016104d292919061102c565b602060405180830381600087803b1580156104ec57600080fd5b505af1158015610500573d6000803e3d6000fd5b505050506040513d601f19601f820116820180604052508101906105249190610e16565b50600260009054906101000a900473ffffffffffffffffffffffffffffffffffffffff1673ffffffffffffffffffffffffffffffffffffffff1663a9059cbb3360646005856105739190611241565b61057d9190611210565b6040518363ffffffff1660e01b815260040161059a92919061102c565b602060405180830381600087803b1580156105b457600080fd5b505af11580156105c8573d6000803e3d6000fd5b505050506040513d601f19601f820116820180604052508101906105ec9190610e16565b5080600460003373ffffffffffffffffffffffffffffffffffffffff1673ffffffffffffffffffffffffffffffffffffffff168152602001908152602001600020600082825461063c919061129b565b925050819055506000600460003373ffffffffffffffffffffffffffffffffffffffff1673ffffffffffffffffffffffffffffffffffffffff16815260200190815260200160002054141561090b5760006007905060005b8180549050811015610908573373ffffffffffffffffffffffffffffffffffffffff168282815481106106f0577f4e487b7100000000000000000000000000000000000000000000000000000000600052603260045260246000fd5b9060005260206000200160009054906101000a900473ffffffffffffffffffffffffffffffffffffffff1673ffffffffffffffffffffffffffffffffffffffff1614156108f5578160018380549050610749919061129b565b81548110610780577f4e487b7100000000000000000000000000000000000000000000000000000000600052603260045260246000fd5b9060005260206000200160009054906101000a900473ffffffffffffffffffffffffffffffffffffffff168282815481106107e4577f4e487b7100000000000000000000000000000000000000000000000000000000600052603260045260246000fd5b9060005260206000200160006101000a81548173ffffffffffffffffffffffffffffffffffffffff021916908373ffffffffffffffffffffffffffffffffffffffff16021790555081805480610863577f4e487b7100000000000000000000000000000000000000000000000000000000600052603160045260246000fd5b6001900381819060005260206000200160006101000a81549073ffffffffffffffffffffffffffffffffffffffff021916905590556000600560003373ffffffffffffffffffffffffffffffffffffffff1673ffffffffffffffffffffffffffffffffffffffff16815260200190815260200160002060006101000a81548160ff021916908315150217905550610908565b8080610900906113c4565b915050610694565b50505b7f7084f5476618d8e60b11ef0d7d3f06914655adb8793e28ff7f018d4c76d505d5338260405161093c92919061102c565b60405180910390a150565b60066020528060005260406000206000915090505481565b606060078054806020026020016040519081016040528092919081815260200182805480156109e357602002820191906000526020600020905b8160009054906101000a900473ffffffffffffffffffffffffffffffffffffffff1673ffffffffffffffffffffffffffffffffffffffff1681526020019060010190808311610999575b5050505050905090565b60046020528060005260406000206000915090505481565b600260009054906101000a900473ffffffffffffffffffffffffffffffffffffffff1681565b60008111610a6e576040517f08c379a0000000000000000000000000000000000000000000000000000000008152600401610a659061112a565b60405180910390fd5b600360009054906101000a900473ffffffffffffffffffffffffffffffffffffffff1673ffffffffffffffffffffffffffffffffffffffff166323b872dd3330846040518463ffffffff1660e01b8152600401610acd93929190610ff5565b602060405180830381600087803b158015610ae757600080fd5b505af1158015610afb573d6000803e3d6000fd5b505050506040513d601f19601f82011682018060405250810190610b1f9190610e16565b5080600460003373ffffffffffffffffffffffffffffffffffffffff1673ffffffffffffffffffffffffffffffffffffffff1681526020019081526020016000206000828254610b6f91906111ba565b9250508190555042600660003373ffffffffffffffffffffffffffffffffffffffff1673ffffffffffffffffffffffffffffffffffffffff16815260200190815260200160002081905550600560003373ffffffffffffffffffffffffffffffffffffffff1673ffffffffffffffffffffffffffffffffffffffff16815260200190815260200160002060009054906101000a900460ff16610c6f576007339080600181540180825580915050600190039060005260206000200160009091909190916101000a81548173ffffffffffffffffffffffffffffffffffffffff021916908373ffffffffffffffffffffffffffffffffffffffff1602179055505b6001600560003373ffffffffffffffffffffffffffffffffffffffff1673ffffffffffffffffffffffffffffffffffffffff16815260200190815260200160002060006101000a81548160ff0219169083151502179055507f9e71bc8eea02a63969f509818f2dafb9254532904319f9dbda79b67bd34a5f3d3382604051610cf892919061102c565b60405180910390a150565b600160009054906101000a900473ffffffffffffffffffffffffffffffffffffffff1681565b600360009054906101000a900473ffffffffffffffffffffffffffffffffffffffff1681565b60056020528060005260406000206000915054906101000a900460ff1681565b60078181548110610d7f57600080fd5b906000526020600020016000915054906101000a900473ffffffffffffffffffffffffffffffffffffffff1681565b600081359050610dbd81611572565b92915050565b600081519050610dd281611589565b92915050565b600081359050610de7816115a0565b92915050565b600060208284031215610dff57600080fd5b6000610e0d84828501610dae565b91505092915050565b600060208284031215610e2857600080fd5b6000610e3684828501610dc3565b91505092915050565b600060208284031215610e5157600080fd5b6000610e5f84828501610dd8565b91505092915050565b6000610e748383610e80565b60208301905092915050565b610e89816112cf565b82525050565b610e98816112cf565b82525050565b6000610ea982611175565b610eb38185611198565b9350610ebe83611165565b8060005b83811015610eef578151610ed68882610e68565b9750610ee18361118b565b925050600181019050610ec2565b5085935050505092915050565b610f05816112e1565b82525050565b610f1481611317565b82525050565b610f238161133b565b82525050565b6000610f3482611180565b610f3e81856111a9565b9350610f4e81856020860161135f565b610f578161149a565b840191505092915050565b6000610f6f603a836111a9565b9150610f7a826114ab565b604082019050919050565b6000610f926036836111a9565b9150610f9d826114fa565b604082019050919050565b6000610fb56012836111a9565b9150610fc082611549565b602082019050919050565b610fd48161130d565b82525050565b6000602082019050610fef6000830184610e8f565b92915050565b600060608201905061100a6000830186610e8f565b6110176020830185610e8f565b6110246040830184610fcb565b949350505050565b60006040820190506110416000830185610e8f565b61104e6020830184610fcb565b9392505050565b6000602082019050818103600083015261106f8184610e9e565b905092915050565b600060208201905061108c6000830184610efc565b92915050565b60006020820190506110a76000830184610f0b565b92915050565b60006020820190506110c26000830184610f1a565b92915050565b600060208201905081810360008301526110e28184610f29565b905092915050565b6000602082019050818103600083015261110381610f62565b9050919050565b6000602082019050818103600083015261112381610f85565b9050919050565b6000602082019050818103600083015261114381610fa8565b9050919050565b600060208201905061115f6000830184610fcb565b92915050565b6000819050602082019050919050565b600081519050919050565b600081519050919050565b6000602082019050919050565b600082825260208201905092915050565b600082825260208201905092915050565b60006111c58261130d565b91506111d08361130d565b9250827fffffffffffffffffffffffffffffffffffffffffffffffffffffffffffffffff038211156112055761120461140d565b5b828201905092915050565b600061121b8261130d565b91506112268361130d565b9250826112365761123561143c565b5b828204905092915050565b600061124c8261130d565b91506112578361130d565b9250817fffffffffffffffffffffffffffffffffffffffffffffffffffffffffffffffff04831182151516156112905761128f61140d565b5b828202905092915050565b60006112a68261130d565b91506112b18361130d565b9250828210156112c4576112c361140d565b5b828203905092915050565b60006112da826112ed565b9050919050565b60008115159050919050565b600073ffffffffffffffffffffffffffffffffffffffff82169050919050565b6000819050919050565b600061132282611329565b9050919050565b6000611334826112ed565b9050919050565b60006113468261134d565b9050919050565b6000611358826112ed565b9050919050565b60005b8381101561137d578082015181840152602081019050611362565b8381111561138c576000848401525b50505050565b600060028204905060018216806113aa57607f821691505b602082108114156113be576113bd61146b565b5b50919050565b60006113cf8261130d565b91507fffffffffffffffffffffffffffffffffffffffffffffffffffffffffffffffff8214156114025761140161140d565b5b600182019050919050565b7f4e487b7100000000000000000000000000000000000000000000000000000000600052601160045260246000fd5b7f4e487b7100000000000000000000000000000000000000000000000000000000600052601260045260246000fd5b7f4e487b7100000000000000000000000000000000000000000000000000000000600052602260045260246000fd5b6000601f19601f8301169050919050565b7f43616e6e6f74207769746864726177206d6f7265207468616e20796f7520686160008201527f766520696e20796f7572207374616b696e672062616c616e6365000000000000602082015250565b7f43616c6c6572206d7573742068617665207374616b656420696e206f7264657260008201527f20746f20776974686472617720736f6d657468696e6700000000000000000000602082015250565b7f416d6f756e742063616e6e6f7420626520300000000000000000000000000000600082015250565b61157b816112cf565b811461158657600080fd5b50565b611592816112e1565b811461159d57600080fd5b50565b6115a98161130d565b81146115b457600080fd5b5056fea26469706673582212206e34cbfe04a79c19239c719a0a8036f0bc27d82657424ee744f9fffa89352efd64736f6c63430008010033",
  "immutableReferences": {},
  "source": "// SPDX-License-Identifier: MIT\r\npragma solidity >=0.8.1;\r\nimport \"./MetoToken.sol\";\r\nimport \"./DaiToken.sol\";\r\n\r\ncontract TokenFarm {\r\n    string public name = \"Token Farm\";\r\n    address public owner;\r\n    MetoToken public metoToken;\r\n    DaiToken public daiToken;\r\n\r\n    mapping(address => uint256) public stakingBalance;\r\n    mapping(address => bool) public hasStaked;\r\n    mapping(address => uint) public timeOfStakingFor;\r\n\r\n    address[] public stakers;\r\n\r\n    event Staked(address by, uint256 amount);\r\n    event Withdrawn(address by, uint256 amount);\r\n\r\n    constructor(MetoToken _metoToken, DaiToken _daiToken) {\r\n        //in order to use them in other functions\r\n        metoToken = _metoToken;\r\n        daiToken = _daiToken;\r\n        owner = msg.sender;\r\n    }\r\n\r\n    modifier onlyOwner {\r\n        require(msg.sender == owner, \"Only the owner of the token farm can call this function\");\r\n        _;\r\n    }\r\n\r\n    function getStakers() public view returns(address[] memory) {\r\n        return stakers;\r\n    }\r\n\r\n    //stake tokens - investor puts money into the app (deposit)\r\n    function stakeTokens(uint256 _amount) public {\r\n        require(_amount > 0, \"Amount cannot be 0\");\r\n        //transfer mock dai tokens to this contract for staking\r\n\r\n        daiToken.transferFrom(msg.sender, address(this), _amount);\r\n\r\n        //update staking balance\r\n        stakingBalance[msg.sender] += _amount;\r\n\r\n        //update time of staking\r\n        timeOfStakingFor[msg.sender] = block.timestamp;\r\n\r\n        // add user to stakers array only if they havent staked already,\r\n        // because later we'd want to give them only once the issued tokens\r\n        if (!hasStaked[msg.sender]) {\r\n            stakers.push(msg.sender);\r\n        }\r\n        //update staking status\r\n        hasStaked[msg.sender] = true;\r\n\r\n        emit Staked(msg.sender, _amount);\r\n    }\r\n\r\n    //unstake tokens - investor withdraws money (withdraw)\r\n    //withdraw and arbitrary amount of tokens\r\n    function withdrawTokens(uint256 _amount) public {\r\n        require(_amount > 0, \"Amount cannot be 0\");\r\n        require(_amount <= stakingBalance[msg.sender], \"Cannot withdraw more than you have in your staking balance\");\r\n        require(hasStaked[msg.sender], \"Caller must have staked in order to withdraw something\");\r\n        //allow them to withdraw a week after their latest stake\r\n        require(timeOfStakingFor[msg.sender] + 1 days <= block.timestamp);\r\n\r\n        //transfer mock dai tokens to this contract for staking\r\n        daiToken.transfer(msg.sender, _amount);\r\n\r\n        //transfer 5% of the withdrawn amount back in meto tokens\r\n        metoToken.transfer(msg.sender, (_amount*5)/100);\r\n\r\n        //update staking balance\r\n        stakingBalance[msg.sender] -= _amount;\r\n\r\n        //if account has withdrawn everything we need to remove them from the stakers array\r\n        if (stakingBalance[msg.sender] == 0) {\r\n            address[] storage arr = stakers;\r\n            for (uint i=0; i < arr.length; i++) {\r\n                if (arr[i] == msg.sender) {\r\n                    arr[i] = arr[arr.length - 1];\r\n                    arr.pop();\r\n                    //update staking status\r\n                    hasStaked[msg.sender] = false;\r\n                    break;\r\n                }\r\n            }\r\n        }\r\n        emit Withdrawn(msg.sender, _amount);\r\n    }\r\n}",
  "sourcePath": "C:/Users/Metodi/Desktop/ProjectsDapp/defi-react-app/contracts/TokenFarm.sol",
  "compiler": {
    "name": "solc",
    "version": "0.8.1+commit.df193b15.Emscripten.clang"
  },
  "schemaVersion": "3.3.2",
  "updatedAt": "2021-03-06T22:59:01.181Z",
  "networkType": "ethereum",
  "devdoc": {
    "kind": "dev",
    "methods": {},
    "version": 1
  },
  "userdoc": {
    "kind": "user",
    "methods": {},
    "version": 1
  }
}