{
  "contractName": "TokenFarm",
  "abi": [
    {
      "inputs": [
        {
          "internalType": "contract MetoToken",
          "name": "_metoToken",
          "type": "address"
        },
        {
          "internalType": "contract DaiToken",
          "name": "_daiToken",
          "type": "address"
        }
      ],
      "stateMutability": "nonpayable",
      "type": "constructor"
    },
    {
      "anonymous": false,
      "inputs": [
        {
          "indexed": false,
          "internalType": "address",
          "name": "by",
          "type": "address"
        },
        {
          "indexed": false,
          "internalType": "uint256",
          "name": "amount",
          "type": "uint256"
        }
      ],
      "name": "Staked",
      "type": "event"
    },
    {
      "anonymous": false,
      "inputs": [
        {
          "indexed": false,
          "internalType": "address",
          "name": "by",
          "type": "address"
        },
        {
          "indexed": false,
          "internalType": "uint256",
          "name": "amount",
          "type": "uint256"
        }
      ],
      "name": "Withdrawn",
      "type": "event"
    },
    {
      "inputs": [],
      "name": "daiToken",
      "outputs": [
        {
          "internalType": "contract DaiToken",
          "name": "",
          "type": "address"
        }
      ],
      "stateMutability": "view",
      "type": "function",
      "constant": true
    },
    {
      "inputs": [
        {
          "internalType": "address",
          "name": "",
          "type": "address"
        }
      ],
      "name": "hasStaked",
      "outputs": [
        {
          "internalType": "bool",
          "name": "",
          "type": "bool"
        }
      ],
      "stateMutability": "view",
      "type": "function",
      "constant": true
    },
    {
      "inputs": [],
      "name": "metoToken",
      "outputs": [
        {
          "internalType": "contract MetoToken",
          "name": "",
          "type": "address"
        }
      ],
      "stateMutability": "view",
      "type": "function",
      "constant": true
    },
    {
      "inputs": [],
      "name": "name",
      "outputs": [
        {
          "internalType": "string",
          "name": "",
          "type": "string"
        }
      ],
      "stateMutability": "view",
      "type": "function",
      "constant": true
    },
    {
      "inputs": [],
      "name": "owner",
      "outputs": [
        {
          "internalType": "address",
          "name": "",
          "type": "address"
        }
      ],
      "stateMutability": "view",
      "type": "function",
      "constant": true
    },
    {
      "inputs": [
        {
          "internalType": "uint256",
          "name": "",
          "type": "uint256"
        }
      ],
      "name": "stakers",
      "outputs": [
        {
          "internalType": "address",
          "name": "",
          "type": "address"
        }
      ],
      "stateMutability": "view",
      "type": "function",
      "constant": true
    },
    {
      "inputs": [
        {
          "internalType": "address",
          "name": "",
          "type": "address"
        }
      ],
      "name": "stakingBalance",
      "outputs": [
        {
          "internalType": "uint256",
          "name": "",
          "type": "uint256"
        }
      ],
      "stateMutability": "view",
      "type": "function",
      "constant": true
    },
    {
      "inputs": [
        {
          "internalType": "address",
          "name": "",
          "type": "address"
        }
      ],
      "name": "timeOfStakingFor",
      "outputs": [
        {
          "internalType": "uint256",
          "name": "",
          "type": "uint256"
        }
      ],
      "stateMutability": "view",
      "type": "function",
      "constant": true
    },
    {
      "inputs": [],
      "name": "getStakers",
      "outputs": [
        {
          "internalType": "address[]",
          "name": "",
          "type": "address[]"
        }
      ],
      "stateMutability": "view",
      "type": "function",
      "constant": true
    },
    {
      "inputs": [
        {
          "internalType": "uint256",
          "name": "_amount",
          "type": "uint256"
        }
      ],
      "name": "stakeTokens",
      "outputs": [],
      "stateMutability": "nonpayable",
      "type": "function"
    },
    {
      "inputs": [
        {
          "internalType": "uint256",
          "name": "_amount",
          "type": "uint256"
        }
      ],
      "name": "withdrawTokens",
      "outputs": [],
      "stateMutability": "nonpayable",
      "type": "function"
    }
  ],
  "bytecode": "0x60806040526040518060400160405280600a81526020017f546f6b656e204661726d00000000000000000000000000000000000000000000815250600090805190602001906200005192919062000150565b503480156200005f57600080fd5b5060405162001a4f38038062001a4f83398181016040528101906200008591906200022e565b81600260006101000a81548173ffffffffffffffffffffffffffffffffffffffff021916908373ffffffffffffffffffffffffffffffffffffffff16021790555080600360006101000a81548173ffffffffffffffffffffffffffffffffffffffff021916908373ffffffffffffffffffffffffffffffffffffffff16021790555033600160006101000a81548173ffffffffffffffffffffffffffffffffffffffff021916908373ffffffffffffffffffffffffffffffffffffffff160217905550505062000364565b8280546200015e90620002cb565b90600052602060002090601f016020900481019282620001825760008555620001ce565b82601f106200019d57805160ff1916838001178555620001ce565b82800160010185558215620001ce579182015b82811115620001cd578251825591602001919060010190620001b0565b5b509050620001dd9190620001e1565b5090565b5b80821115620001fc576000816000905550600101620001e2565b5090565b600081519050620002118162000330565b92915050565b60008151905062000228816200034a565b92915050565b600080604083850312156200024257600080fd5b6000620002528582860162000217565b9250506020620002658582860162000200565b9150509250929050565b60006200027c82620002ab565b9050919050565b600062000290826200026f565b9050919050565b6000620002a4826200026f565b9050919050565b600073ffffffffffffffffffffffffffffffffffffffff82169050919050565b60006002820490506001821680620002e457607f821691505b60208210811415620002fb57620002fa62000301565b5b50919050565b7f4e487b7100000000000000000000000000000000000000000000000000000000600052602260045260246000fd5b6200033b8162000283565b81146200034757600080fd5b50565b620003558162000297565b81146200036157600080fd5b50565b6116db80620003746000396000f3fe608060405234801561001057600080fd5b50600436106100a95760003560e01c80636ddd0f5f116100715780636ddd0f5f146101665780637547c7a3146101845780638da5cb5b146101a0578063be22f546146101be578063c93c8f34146101dc578063fd5e6dd11461020c576100a9565b806306fdde03146100ae578063315a095d146100cc5780633e4808e4146100e857806343352d611461011857806345bc78ab14610136575b600080fd5b6100b661023c565b6040516100c39190611121565b60405180910390f35b6100e660048036038101906100e19190610e75565b6102ca565b005b61010260048036038101906100fd9190610e23565b61097d565b60405161010f91906111c3565b60405180910390f35b610120610995565b60405161012d91906110ae565b60405180910390f35b610150600480360381019061014b9190610e23565b610a23565b60405161015d91906111c3565b60405180910390f35b61016e610a3b565b60405161017b9190611106565b60405180910390f35b61019e60048036038101906101999190610e75565b610a61565b005b6101a8610d39565b6040516101b59190611033565b60405180910390f35b6101c6610d5f565b6040516101d391906110eb565b60405180910390f35b6101f660048036038101906101f19190610e23565b610d85565b60405161020391906110d0565b60405180910390f35b61022660048036038101906102219190610e75565b610da5565b6040516102339190611033565b60405180910390f35b600080546102499061140b565b80601f01602080910402602001604051908101604052809291908181526020018280546102759061140b565b80156102c25780601f10610297576101008083540402835291602001916102c2565b820191906000526020600020905b8154815290600101906020018083116102a557829003601f168201915b505050505081565b6000811161030d576040517f08c379a0000000000000000000000000000000000000000000000000000000008152600401610304906111a3565b60405180910390fd5b600460003373ffffffffffffffffffffffffffffffffffffffff1673ffffffffffffffffffffffffffffffffffffffff1681526020019081526020016000205481111561038f576040517f08c379a000000000000000000000000000000000000000000000000000000000815260040161038690611143565b60405180910390fd5b600560003373ffffffffffffffffffffffffffffffffffffffff1673ffffffffffffffffffffffffffffffffffffffff16815260200190815260200160002060009054906101000a900460ff1661041b576040517f08c379a000000000000000000000000000000000000000000000000000000000815260040161041290611183565b60405180910390fd5b62015180600660003373ffffffffffffffffffffffffffffffffffffffff1673ffffffffffffffffffffffffffffffffffffffff168152602001908152602001600020546104699190611233565b4210156104ab576040517f08c379a00000000000000000000000000000000000000000000000000000000081526004016104a290611163565b60405180910390fd5b600360009054906101000a900473ffffffffffffffffffffffffffffffffffffffff1673ffffffffffffffffffffffffffffffffffffffff1663a9059cbb33836040518363ffffffff1660e01b8152600401610508929190611085565b602060405180830381600087803b15801561052257600080fd5b505af1158015610536573d6000803e3d6000fd5b505050506040513d601f19601f8201168201806040525081019061055a9190610e4c565b50600260009054906101000a900473ffffffffffffffffffffffffffffffffffffffff1673ffffffffffffffffffffffffffffffffffffffff1663a9059cbb3360646005856105a991906112ba565b6105b39190611289565b6040518363ffffffff1660e01b81526004016105d0929190611085565b602060405180830381600087803b1580156105ea57600080fd5b505af11580156105fe573d6000803e3d6000fd5b505050506040513d601f19601f820116820180604052508101906106229190610e4c565b5080600460003373ffffffffffffffffffffffffffffffffffffffff1673ffffffffffffffffffffffffffffffffffffffff16815260200190815260200160002060008282546106729190611314565b925050819055506000600460003373ffffffffffffffffffffffffffffffffffffffff1673ffffffffffffffffffffffffffffffffffffffff1681526020019081526020016000205414156109415760006007905060005b818054905081101561093e573373ffffffffffffffffffffffffffffffffffffffff16828281548110610726577f4e487b7100000000000000000000000000000000000000000000000000000000600052603260045260246000fd5b9060005260206000200160009054906101000a900473ffffffffffffffffffffffffffffffffffffffff1673ffffffffffffffffffffffffffffffffffffffff16141561092b57816001838054905061077f9190611314565b815481106107b6577f4e487b7100000000000000000000000000000000000000000000000000000000600052603260045260246000fd5b9060005260206000200160009054906101000a900473ffffffffffffffffffffffffffffffffffffffff1682828154811061081a577f4e487b7100000000000000000000000000000000000000000000000000000000600052603260045260246000fd5b9060005260206000200160006101000a81548173ffffffffffffffffffffffffffffffffffffffff021916908373ffffffffffffffffffffffffffffffffffffffff16021790555081805480610899577f4e487b7100000000000000000000000000000000000000000000000000000000600052603160045260246000fd5b6001900381819060005260206000200160006101000a81549073ffffffffffffffffffffffffffffffffffffffff021916905590556000600560003373ffffffffffffffffffffffffffffffffffffffff1673ffffffffffffffffffffffffffffffffffffffff16815260200190815260200160002060006101000a81548160ff02191690831515021790555061093e565b80806109369061143d565b9150506106ca565b50505b7f7084f5476618d8e60b11ef0d7d3f06914655adb8793e28ff7f018d4c76d505d53382604051610972929190611085565b60405180910390a150565b60066020528060005260406000206000915090505481565b60606007805480602002602001604051908101604052809291908181526020018280548015610a1957602002820191906000526020600020905b8160009054906101000a900473ffffffffffffffffffffffffffffffffffffffff1673ffffffffffffffffffffffffffffffffffffffff16815260200190600101908083116109cf575b5050505050905090565b60046020528060005260406000206000915090505481565b600260009054906101000a900473ffffffffffffffffffffffffffffffffffffffff1681565b60008111610aa4576040517f08c379a0000000000000000000000000000000000000000000000000000000008152600401610a9b906111a3565b60405180910390fd5b600360009054906101000a900473ffffffffffffffffffffffffffffffffffffffff1673ffffffffffffffffffffffffffffffffffffffff166323b872dd3330846040518463ffffffff1660e01b8152600401610b039392919061104e565b602060405180830381600087803b158015610b1d57600080fd5b505af1158015610b31573d6000803e3d6000fd5b505050506040513d601f19601f82011682018060405250810190610b559190610e4c565b5080600460003373ffffffffffffffffffffffffffffffffffffffff1673ffffffffffffffffffffffffffffffffffffffff1681526020019081526020016000206000828254610ba59190611233565b9250508190555042600660003373ffffffffffffffffffffffffffffffffffffffff1673ffffffffffffffffffffffffffffffffffffffff16815260200190815260200160002081905550600560003373ffffffffffffffffffffffffffffffffffffffff1673ffffffffffffffffffffffffffffffffffffffff16815260200190815260200160002060009054906101000a900460ff16610ca5576007339080600181540180825580915050600190039060005260206000200160009091909190916101000a81548173ffffffffffffffffffffffffffffffffffffffff021916908373ffffffffffffffffffffffffffffffffffffffff1602179055505b6001600560003373ffffffffffffffffffffffffffffffffffffffff1673ffffffffffffffffffffffffffffffffffffffff16815260200190815260200160002060006101000a81548160ff0219169083151502179055507f9e71bc8eea02a63969f509818f2dafb9254532904319f9dbda79b67bd34a5f3d3382604051610d2e929190611085565b60405180910390a150565b600160009054906101000a900473ffffffffffffffffffffffffffffffffffffffff1681565b600360009054906101000a900473ffffffffffffffffffffffffffffffffffffffff1681565b60056020528060005260406000206000915054906101000a900460ff1681565b60078181548110610db557600080fd5b906000526020600020016000915054906101000a900473ffffffffffffffffffffffffffffffffffffffff1681565b600081359050610df381611660565b92915050565b600081519050610e0881611677565b92915050565b600081359050610e1d8161168e565b92915050565b600060208284031215610e3557600080fd5b6000610e4384828501610de4565b91505092915050565b600060208284031215610e5e57600080fd5b6000610e6c84828501610df9565b91505092915050565b600060208284031215610e8757600080fd5b6000610e9584828501610e0e565b91505092915050565b6000610eaa8383610eb6565b60208301905092915050565b610ebf81611348565b82525050565b610ece81611348565b82525050565b6000610edf826111ee565b610ee98185611211565b9350610ef4836111de565b8060005b83811015610f25578151610f0c8882610e9e565b9750610f1783611204565b925050600181019050610ef8565b5085935050505092915050565b610f3b8161135a565b82525050565b610f4a81611390565b82525050565b610f59816113b4565b82525050565b6000610f6a826111f9565b610f748185611222565b9350610f848185602086016113d8565b610f8d81611513565b840191505092915050565b6000610fa5603a83611222565b9150610fb082611524565b604082019050919050565b6000610fc8604683611222565b9150610fd382611573565b606082019050919050565b6000610feb603683611222565b9150610ff6826115e8565b604082019050919050565b600061100e601283611222565b915061101982611637565b602082019050919050565b61102d81611386565b82525050565b60006020820190506110486000830184610ec5565b92915050565b60006060820190506110636000830186610ec5565b6110706020830185610ec5565b61107d6040830184611024565b949350505050565b600060408201905061109a6000830185610ec5565b6110a76020830184611024565b9392505050565b600060208201905081810360008301526110c88184610ed4565b905092915050565b60006020820190506110e56000830184610f32565b92915050565b60006020820190506111006000830184610f41565b92915050565b600060208201905061111b6000830184610f50565b92915050565b6000602082019050818103600083015261113b8184610f5f565b905092915050565b6000602082019050818103600083015261115c81610f98565b9050919050565b6000602082019050818103600083015261117c81610fbb565b9050919050565b6000602082019050818103600083015261119c81610fde565b9050919050565b600060208201905081810360008301526111bc81611001565b9050919050565b60006020820190506111d86000830184611024565b92915050565b6000819050602082019050919050565b600081519050919050565b600081519050919050565b6000602082019050919050565b600082825260208201905092915050565b600082825260208201905092915050565b600061123e82611386565b915061124983611386565b9250827fffffffffffffffffffffffffffffffffffffffffffffffffffffffffffffffff0382111561127e5761127d611486565b5b828201905092915050565b600061129482611386565b915061129f83611386565b9250826112af576112ae6114b5565b5b828204905092915050565b60006112c582611386565b91506112d083611386565b9250817fffffffffffffffffffffffffffffffffffffffffffffffffffffffffffffffff048311821515161561130957611308611486565b5b828202905092915050565b600061131f82611386565b915061132a83611386565b92508282101561133d5761133c611486565b5b828203905092915050565b600061135382611366565b9050919050565b60008115159050919050565b600073ffffffffffffffffffffffffffffffffffffffff82169050919050565b6000819050919050565b600061139b826113a2565b9050919050565b60006113ad82611366565b9050919050565b60006113bf826113c6565b9050919050565b60006113d182611366565b9050919050565b60005b838110156113f65780820151818401526020810190506113db565b83811115611405576000848401525b50505050565b6000600282049050600182168061142357607f821691505b60208210811415611437576114366114e4565b5b50919050565b600061144882611386565b91507fffffffffffffffffffffffffffffffffffffffffffffffffffffffffffffffff82141561147b5761147a611486565b5b600182019050919050565b7f4e487b7100000000000000000000000000000000000000000000000000000000600052601160045260246000fd5b7f4e487b7100000000000000000000000000000000000000000000000000000000600052601260045260246000fd5b7f4e487b7100000000000000000000000000000000000000000000000000000000600052602260045260246000fd5b6000601f19601f8301169050919050565b7f43616e6e6f74207769746864726177206d6f7265207468616e20796f7520686160008201527f766520696e20796f7572207374616b696e672062616c616e6365000000000000602082015250565b7f54686520626c6f636b2074696d657374616d702073686f756c6420626520617460008201527f206c65617374206120646179206166746572207468652074696d65206f66207360208201527f74616b696e670000000000000000000000000000000000000000000000000000604082015250565b7f43616c6c6572206d7573742068617665207374616b656420696e206f7264657260008201527f20746f20776974686472617720736f6d657468696e6700000000000000000000602082015250565b7f416d6f756e742063616e6e6f7420626520300000000000000000000000000000600082015250565b61166981611348565b811461167457600080fd5b50565b6116808161135a565b811461168b57600080fd5b50565b61169781611386565b81146116a257600080fd5b5056fea264697066735822122009e411406d527caff531cffd598952f8024c567527bfceb280e0a29607ea614264736f6c63430008010033",
  "immutableReferences": {},
  "source": "// SPDX-License-Identifier: MIT\r\npragma solidity >=0.8.1;\r\nimport \"./MetoToken.sol\";\r\nimport \"./DaiToken.sol\";\r\n\r\ncontract TokenFarm {\r\n    string public name = \"Token Farm\";\r\n    address public owner;\r\n    MetoToken public metoToken;\r\n    DaiToken public daiToken;\r\n\r\n    mapping(address => uint256) public stakingBalance;\r\n    mapping(address => bool) public hasStaked;\r\n    mapping(address => uint) public timeOfStakingFor;\r\n\r\n    address[] public stakers;\r\n\r\n    event Staked(address by, uint256 amount);\r\n    event Withdrawn(address by, uint256 amount);\r\n\r\n    constructor(MetoToken _metoToken, DaiToken _daiToken) {\r\n        //in order to use them in other functions\r\n        metoToken = _metoToken;\r\n        daiToken = _daiToken;\r\n        owner = msg.sender;\r\n    }\r\n\r\n    modifier onlyOwner {\r\n        require(msg.sender == owner, \"Only the owner of the token farm can call this function\");\r\n        _;\r\n    }\r\n\r\n    function getStakers() public view returns(address[] memory) {\r\n        return stakers;\r\n    }\r\n\r\n    //stake tokens - investor puts money into the app (deposit)\r\n    function stakeTokens(uint256 _amount) public {\r\n        require(_amount > 0, \"Amount cannot be 0\");\r\n        //transfer mock dai tokens to this contract for staking\r\n\r\n        daiToken.transferFrom(msg.sender, address(this), _amount);\r\n\r\n        //update staking balance\r\n        stakingBalance[msg.sender] += _amount;\r\n\r\n        //update time of staking\r\n        timeOfStakingFor[msg.sender] = block.timestamp;\r\n\r\n        // add user to stakers array only if they havent staked already,\r\n        // because later we'd want to give them only once the issued tokens\r\n        if (!hasStaked[msg.sender]) {\r\n            stakers.push(msg.sender);\r\n        }\r\n        //update staking status\r\n        hasStaked[msg.sender] = true;\r\n\r\n        emit Staked(msg.sender, _amount);\r\n    }\r\n\r\n    //unstake tokens - investor withdraws money (withdraw)\r\n    //withdraw and arbitrary amount of tokens\r\n    function withdrawTokens(uint256 _amount) public {\r\n        require(_amount > 0, \"Amount cannot be 0\");\r\n        require(_amount <= stakingBalance[msg.sender], \"Cannot withdraw more than you have in your staking balance\");\r\n        require(hasStaked[msg.sender], \"Caller must have staked in order to withdraw something\");\r\n        //allow them to withdraw a week after their latest stake\r\n        require(block.timestamp >= (timeOfStakingFor[msg.sender] + 1 days), \"The block timestamp should be at least a day after the time of staking\");\r\n\r\n        //transfer mock dai tokens to this contract for staking\r\n        daiToken.transfer(msg.sender, _amount);\r\n\r\n        //transfer 5% of the withdrawn amount back in meto tokens\r\n        metoToken.transfer(msg.sender, (_amount*5)/100);\r\n\r\n        //update staking balance\r\n        stakingBalance[msg.sender] -= _amount;\r\n\r\n        //if account has withdrawn everything we need to remove them from the stakers array\r\n        if (stakingBalance[msg.sender] == 0) {\r\n            address[] storage arr = stakers;\r\n            for (uint i=0; i < arr.length; i++) {\r\n                if (arr[i] == msg.sender) {\r\n                    arr[i] = arr[arr.length - 1];\r\n                    arr.pop();\r\n                    //update staking status\r\n                    hasStaked[msg.sender] = false;\r\n                    break;\r\n                }\r\n            }\r\n        }\r\n        emit Withdrawn(msg.sender, _amount);\r\n    }\r\n}",
  "sourcePath": "C:/Users/Metodi/Desktop/ProjectsDapp/defi-react-app/contracts/TokenFarm.sol",
  "compiler": {
    "name": "solc",
    "version": "0.8.1+commit.df193b15.Emscripten.clang"
  },
  "schemaVersion": "3.3.2",
  "updatedAt": "2021-03-07T11:53:47.760Z",
  "networkType": "ethereum",
  "devdoc": {
    "kind": "dev",
    "methods": {},
    "version": 1
  },
  "userdoc": {
    "kind": "user",
    "methods": {},
    "version": 1
  }
}