{
  "contractName": "TokenFarm",
  "abi": [
    {
      "inputs": [
        {
          "internalType": "contract MetoToken",
          "name": "_metoToken",
          "type": "address"
        },
        {
          "internalType": "contract DaiToken",
          "name": "_daiToken",
          "type": "address"
        }
      ],
      "stateMutability": "nonpayable",
      "type": "constructor"
    },
    {
      "anonymous": false,
      "inputs": [
        {
          "indexed": false,
          "internalType": "address",
          "name": "to",
          "type": "address"
        },
        {
          "indexed": false,
          "internalType": "uint256",
          "name": "amount",
          "type": "uint256"
        }
      ],
      "name": "Issued",
      "type": "event"
    },
    {
      "anonymous": false,
      "inputs": [
        {
          "indexed": false,
          "internalType": "address",
          "name": "by",
          "type": "address"
        },
        {
          "indexed": false,
          "internalType": "uint256",
          "name": "amount",
          "type": "uint256"
        }
      ],
      "name": "Staked",
      "type": "event"
    },
    {
      "anonymous": false,
      "inputs": [
        {
          "indexed": false,
          "internalType": "address",
          "name": "by",
          "type": "address"
        },
        {
          "indexed": false,
          "internalType": "uint256",
          "name": "amount",
          "type": "uint256"
        }
      ],
      "name": "Withdrawn",
      "type": "event"
    },
    {
      "inputs": [],
      "name": "daiToken",
      "outputs": [
        {
          "internalType": "contract DaiToken",
          "name": "",
          "type": "address"
        }
      ],
      "stateMutability": "view",
      "type": "function",
      "constant": true
    },
    {
      "inputs": [
        {
          "internalType": "address",
          "name": "",
          "type": "address"
        }
      ],
      "name": "hasStaked",
      "outputs": [
        {
          "internalType": "bool",
          "name": "",
          "type": "bool"
        }
      ],
      "stateMutability": "view",
      "type": "function",
      "constant": true
    },
    {
      "inputs": [
        {
          "internalType": "address",
          "name": "",
          "type": "address"
        }
      ],
      "name": "isStaking",
      "outputs": [
        {
          "internalType": "bool",
          "name": "",
          "type": "bool"
        }
      ],
      "stateMutability": "view",
      "type": "function",
      "constant": true
    },
    {
      "inputs": [],
      "name": "metoToken",
      "outputs": [
        {
          "internalType": "contract MetoToken",
          "name": "",
          "type": "address"
        }
      ],
      "stateMutability": "view",
      "type": "function",
      "constant": true
    },
    {
      "inputs": [],
      "name": "name",
      "outputs": [
        {
          "internalType": "string",
          "name": "",
          "type": "string"
        }
      ],
      "stateMutability": "view",
      "type": "function",
      "constant": true
    },
    {
      "inputs": [],
      "name": "owner",
      "outputs": [
        {
          "internalType": "address",
          "name": "",
          "type": "address"
        }
      ],
      "stateMutability": "view",
      "type": "function",
      "constant": true
    },
    {
      "inputs": [
        {
          "internalType": "uint256",
          "name": "",
          "type": "uint256"
        }
      ],
      "name": "stakers",
      "outputs": [
        {
          "internalType": "address",
          "name": "",
          "type": "address"
        }
      ],
      "stateMutability": "view",
      "type": "function",
      "constant": true
    },
    {
      "inputs": [
        {
          "internalType": "address",
          "name": "",
          "type": "address"
        }
      ],
      "name": "stakingBalance",
      "outputs": [
        {
          "internalType": "uint256",
          "name": "",
          "type": "uint256"
        }
      ],
      "stateMutability": "view",
      "type": "function",
      "constant": true
    },
    {
      "inputs": [],
      "name": "getStakers",
      "outputs": [
        {
          "internalType": "address[]",
          "name": "",
          "type": "address[]"
        }
      ],
      "stateMutability": "view",
      "type": "function",
      "constant": true
    },
    {
      "inputs": [
        {
          "internalType": "uint256",
          "name": "_amount",
          "type": "uint256"
        }
      ],
      "name": "stakeTokens",
      "outputs": [],
      "stateMutability": "nonpayable",
      "type": "function"
    },
    {
      "inputs": [
        {
          "internalType": "uint256",
          "name": "_amount",
          "type": "uint256"
        }
      ],
      "name": "withdrawTokens",
      "outputs": [],
      "stateMutability": "nonpayable",
      "type": "function"
    },
    {
      "inputs": [],
      "name": "issueTokens",
      "outputs": [],
      "stateMutability": "nonpayable",
      "type": "function"
    }
  ],
  "bytecode": "0x60806040526040518060400160405280600a81526020017f546f6b656e204661726d00000000000000000000000000000000000000000000815250600090805190602001906200005192919062000150565b503480156200005f57600080fd5b5060405162001cfa38038062001cfa83398181016040528101906200008591906200022e565b81600260006101000a81548173ffffffffffffffffffffffffffffffffffffffff021916908373ffffffffffffffffffffffffffffffffffffffff16021790555080600360006101000a81548173ffffffffffffffffffffffffffffffffffffffff021916908373ffffffffffffffffffffffffffffffffffffffff16021790555033600160006101000a81548173ffffffffffffffffffffffffffffffffffffffff021916908373ffffffffffffffffffffffffffffffffffffffff160217905550505062000364565b8280546200015e90620002cb565b90600052602060002090601f016020900481019282620001825760008555620001ce565b82601f106200019d57805160ff1916838001178555620001ce565b82800160010185558215620001ce579182015b82811115620001cd578251825591602001919060010190620001b0565b5b509050620001dd9190620001e1565b5090565b5b80821115620001fc576000816000905550600101620001e2565b5090565b600081519050620002118162000330565b92915050565b60008151905062000228816200034a565b92915050565b600080604083850312156200024257600080fd5b6000620002528582860162000217565b9250506020620002658582860162000200565b9150509250929050565b60006200027c82620002ab565b9050919050565b600062000290826200026f565b9050919050565b6000620002a4826200026f565b9050919050565b600073ffffffffffffffffffffffffffffffffffffffff82169050919050565b60006002820490506001821680620002e457607f821691505b60208210811415620002fb57620002fa62000301565b5b50919050565b7f4e487b7100000000000000000000000000000000000000000000000000000000600052602260045260246000fd5b6200033b8162000283565b81146200034757600080fd5b50565b620003558162000297565b81146200036157600080fd5b50565b61198680620003746000396000f3fe608060405234801561001057600080fd5b50600436106100b45760003560e01c80636f49712b116100715780636f49712b146101695780637547c7a3146101995780638da5cb5b146101b5578063be22f546146101d3578063c93c8f34146101f1578063fd5e6dd114610221576100b4565b806306fdde03146100b9578063315a095d146100d757806343352d61146100f357806345bc78ab1461011157806360ab5852146101415780636ddd0f5f1461014b575b600080fd5b6100c1610251565b6040516100ce91906114ac565b60405180910390f35b6100f160048036038101906100ec9190611200565b6102df565b005b6100fb610892565b6040516101089190611439565b60405180910390f35b61012b600480360381019061012691906111ae565b610920565b604051610138919061154e565b60405180910390f35b610149610938565b005b610153610d92565b6040516101609190611491565b60405180910390f35b610183600480360381019061017e91906111ae565b610db8565b604051610190919061145b565b60405180910390f35b6101b360048036038101906101ae9190611200565b610dd8565b005b6101bd6110c4565b6040516101ca91906113be565b60405180910390f35b6101db6110ea565b6040516101e89190611476565b60405180910390f35b61020b600480360381019061020691906111ae565b611110565b604051610218919061145b565b60405180910390f35b61023b60048036038101906102369190611200565b611130565b60405161024891906113be565b60405180910390f35b6000805461025e9061170b565b80601f016020809104026020016040519081016040528092919081815260200182805461028a9061170b565b80156102d75780601f106102ac576101008083540402835291602001916102d7565b820191906000526020600020905b8154815290600101906020018083116102ba57829003601f168201915b505050505081565b60008111610322576040517f08c379a00000000000000000000000000000000000000000000000000000000081526004016103199061152e565b60405180910390fd5b600460003373ffffffffffffffffffffffffffffffffffffffff1673ffffffffffffffffffffffffffffffffffffffff168152602001908152602001600020548111156103a4576040517f08c379a000000000000000000000000000000000000000000000000000000000815260040161039b906114ce565b60405180910390fd5b600560003373ffffffffffffffffffffffffffffffffffffffff1673ffffffffffffffffffffffffffffffffffffffff16815260200190815260200160002060009054906101000a900460ff16610430576040517f08c379a0000000000000000000000000000000000000000000000000000000008152600401610427906114ee565b60405180910390fd5b600360009054906101000a900473ffffffffffffffffffffffffffffffffffffffff1673ffffffffffffffffffffffffffffffffffffffff1663a9059cbb33836040518363ffffffff1660e01b815260040161048d929190611410565b602060405180830381600087803b1580156104a757600080fd5b505af11580156104bb573d6000803e3d6000fd5b505050506040513d601f19601f820116820180604052508101906104df91906111d7565b5080600460003373ffffffffffffffffffffffffffffffffffffffff1673ffffffffffffffffffffffffffffffffffffffff168152602001908152602001600020600082825461052f9190611614565b925050819055506000600460003373ffffffffffffffffffffffffffffffffffffffff1673ffffffffffffffffffffffffffffffffffffffff1681526020019081526020016000205414156108565760006007905060005b8180549050811015610853573373ffffffffffffffffffffffffffffffffffffffff168282815481106105e3577f4e487b7100000000000000000000000000000000000000000000000000000000600052603260045260246000fd5b9060005260206000200160009054906101000a900473ffffffffffffffffffffffffffffffffffffffff1673ffffffffffffffffffffffffffffffffffffffff16141561084057816001838054905061063c9190611614565b81548110610673577f4e487b7100000000000000000000000000000000000000000000000000000000600052603260045260246000fd5b9060005260206000200160009054906101000a900473ffffffffffffffffffffffffffffffffffffffff168282815481106106d7577f4e487b7100000000000000000000000000000000000000000000000000000000600052603260045260246000fd5b9060005260206000200160006101000a81548173ffffffffffffffffffffffffffffffffffffffff021916908373ffffffffffffffffffffffffffffffffffffffff16021790555081805480610756577f4e487b7100000000000000000000000000000000000000000000000000000000600052603160045260246000fd5b6001900381819060005260206000200160006101000a81549073ffffffffffffffffffffffffffffffffffffffff021916905590556000600560003373ffffffffffffffffffffffffffffffffffffffff1673ffffffffffffffffffffffffffffffffffffffff16815260200190815260200160002060006101000a81548160ff0219169083151502179055506000600660003373ffffffffffffffffffffffffffffffffffffffff1673ffffffffffffffffffffffffffffffffffffffff16815260200190815260200160002060006101000a81548160ff021916908315150217905550610853565b808061084b9061173d565b915050610587565b50505b7f7084f5476618d8e60b11ef0d7d3f06914655adb8793e28ff7f018d4c76d505d53382604051610887929190611410565b60405180910390a150565b6060600780548060200260200160405190810160405280929190818152602001828054801561091657602002820191906000526020600020905b8160009054906101000a900473ffffffffffffffffffffffffffffffffffffffff1673ffffffffffffffffffffffffffffffffffffffff16815260200190600101908083116108cc575b5050505050905090565b60046020528060005260406000206000915090505481565b600160009054906101000a900473ffffffffffffffffffffffffffffffffffffffff1673ffffffffffffffffffffffffffffffffffffffff163373ffffffffffffffffffffffffffffffffffffffff16146109c8576040517f08c379a00000000000000000000000000000000000000000000000000000000081526004016109bf9061150e565b60405180910390fd5b60005b600780549050811015610d8f5760006004600060078481548110610a18577f4e487b7100000000000000000000000000000000000000000000000000000000600052603260045260246000fd5b9060005260206000200160009054906101000a900473ffffffffffffffffffffffffffffffffffffffff1673ffffffffffffffffffffffffffffffffffffffff1673ffffffffffffffffffffffffffffffffffffffff168152602001908152602001600020541115610d7c57600260009054906101000a900473ffffffffffffffffffffffffffffffffffffffff1673ffffffffffffffffffffffffffffffffffffffff1663a9059cbb60078381548110610afc577f4e487b7100000000000000000000000000000000000000000000000000000000600052603260045260246000fd5b9060005260206000200160009054906101000a900473ffffffffffffffffffffffffffffffffffffffff166004600060078681548110610b65577f4e487b7100000000000000000000000000000000000000000000000000000000600052603260045260246000fd5b9060005260206000200160009054906101000a900473ffffffffffffffffffffffffffffffffffffffff1673ffffffffffffffffffffffffffffffffffffffff1673ffffffffffffffffffffffffffffffffffffffff168152602001908152602001600020546040518363ffffffff1660e01b8152600401610be8929190611410565b602060405180830381600087803b158015610c0257600080fd5b505af1158015610c16573d6000803e3d6000fd5b505050506040513d601f19601f82011682018060405250810190610c3a91906111d7565b507fa59f12e354e8cd10bb74c559844c2dd69a5458e31fe56c7594c62ca57480509a60078281548110610c96577f4e487b7100000000000000000000000000000000000000000000000000000000600052603260045260246000fd5b9060005260206000200160009054906101000a900473ffffffffffffffffffffffffffffffffffffffff166004600060078581548110610cff577f4e487b7100000000000000000000000000000000000000000000000000000000600052603260045260246000fd5b9060005260206000200160009054906101000a900473ffffffffffffffffffffffffffffffffffffffff1673ffffffffffffffffffffffffffffffffffffffff1673ffffffffffffffffffffffffffffffffffffffff16815260200190815260200160002054604051610d73929190611410565b60405180910390a15b8080610d879061173d565b9150506109cb565b50565b600260009054906101000a900473ffffffffffffffffffffffffffffffffffffffff1681565b60066020528060005260406000206000915054906101000a900460ff1681565b60008111610e1b576040517f08c379a0000000000000000000000000000000000000000000000000000000008152600401610e129061152e565b60405180910390fd5b600360009054906101000a900473ffffffffffffffffffffffffffffffffffffffff1673ffffffffffffffffffffffffffffffffffffffff166323b872dd3330846040518463ffffffff1660e01b8152600401610e7a939291906113d9565b602060405180830381600087803b158015610e9457600080fd5b505af1158015610ea8573d6000803e3d6000fd5b505050506040513d601f19601f82011682018060405250810190610ecc91906111d7565b5080600460003373ffffffffffffffffffffffffffffffffffffffff1673ffffffffffffffffffffffffffffffffffffffff1681526020019081526020016000206000828254610f1c91906115be565b92505081905550600560003373ffffffffffffffffffffffffffffffffffffffff1673ffffffffffffffffffffffffffffffffffffffff16815260200190815260200160002060009054906101000a900460ff16610fd8576007339080600181540180825580915050600190039060005260206000200160009091909190916101000a81548173ffffffffffffffffffffffffffffffffffffffff021916908373ffffffffffffffffffffffffffffffffffffffff1602179055505b6001600660003373ffffffffffffffffffffffffffffffffffffffff1673ffffffffffffffffffffffffffffffffffffffff16815260200190815260200160002060006101000a81548160ff0219169083151502179055506001600560003373ffffffffffffffffffffffffffffffffffffffff1673ffffffffffffffffffffffffffffffffffffffff16815260200190815260200160002060006101000a81548160ff0219169083151502179055507f9e71bc8eea02a63969f509818f2dafb9254532904319f9dbda79b67bd34a5f3d33826040516110b9929190611410565b60405180910390a150565b600160009054906101000a900473ffffffffffffffffffffffffffffffffffffffff1681565b600360009054906101000a900473ffffffffffffffffffffffffffffffffffffffff1681565b60056020528060005260406000206000915054906101000a900460ff1681565b6007818154811061114057600080fd5b906000526020600020016000915054906101000a900473ffffffffffffffffffffffffffffffffffffffff1681565b60008135905061117e8161190b565b92915050565b60008151905061119381611922565b92915050565b6000813590506111a881611939565b92915050565b6000602082840312156111c057600080fd5b60006111ce8482850161116f565b91505092915050565b6000602082840312156111e957600080fd5b60006111f784828501611184565b91505092915050565b60006020828403121561121257600080fd5b600061122084828501611199565b91505092915050565b60006112358383611241565b60208301905092915050565b61124a81611648565b82525050565b61125981611648565b82525050565b600061126a82611579565b611274818561159c565b935061127f83611569565b8060005b838110156112b05781516112978882611229565b97506112a28361158f565b925050600181019050611283565b5085935050505092915050565b6112c68161165a565b82525050565b6112d581611690565b82525050565b6112e4816116b4565b82525050565b60006112f582611584565b6112ff81856115ad565b935061130f8185602086016116d8565b611318816117e4565b840191505092915050565b6000611330603a836115ad565b915061133b826117f5565b604082019050919050565b60006113536036836115ad565b915061135e82611844565b604082019050919050565b60006113766037836115ad565b915061138182611893565b604082019050919050565b60006113996012836115ad565b91506113a4826118e2565b602082019050919050565b6113b881611686565b82525050565b60006020820190506113d36000830184611250565b92915050565b60006060820190506113ee6000830186611250565b6113fb6020830185611250565b61140860408301846113af565b949350505050565b60006040820190506114256000830185611250565b61143260208301846113af565b9392505050565b60006020820190508181036000830152611453818461125f565b905092915050565b600060208201905061147060008301846112bd565b92915050565b600060208201905061148b60008301846112cc565b92915050565b60006020820190506114a660008301846112db565b92915050565b600060208201905081810360008301526114c681846112ea565b905092915050565b600060208201905081810360008301526114e781611323565b9050919050565b6000602082019050818103600083015261150781611346565b9050919050565b6000602082019050818103600083015261152781611369565b9050919050565b600060208201905081810360008301526115478161138c565b9050919050565b600060208201905061156360008301846113af565b92915050565b6000819050602082019050919050565b600081519050919050565b600081519050919050565b6000602082019050919050565b600082825260208201905092915050565b600082825260208201905092915050565b60006115c982611686565b91506115d483611686565b9250827fffffffffffffffffffffffffffffffffffffffffffffffffffffffffffffffff0382111561160957611608611786565b5b828201905092915050565b600061161f82611686565b915061162a83611686565b92508282101561163d5761163c611786565b5b828203905092915050565b600061165382611666565b9050919050565b60008115159050919050565b600073ffffffffffffffffffffffffffffffffffffffff82169050919050565b6000819050919050565b600061169b826116a2565b9050919050565b60006116ad82611666565b9050919050565b60006116bf826116c6565b9050919050565b60006116d182611666565b9050919050565b60005b838110156116f65780820151818401526020810190506116db565b83811115611705576000848401525b50505050565b6000600282049050600182168061172357607f821691505b60208210811415611737576117366117b5565b5b50919050565b600061174882611686565b91507fffffffffffffffffffffffffffffffffffffffffffffffffffffffffffffffff82141561177b5761177a611786565b5b600182019050919050565b7f4e487b7100000000000000000000000000000000000000000000000000000000600052601160045260246000fd5b7f4e487b7100000000000000000000000000000000000000000000000000000000600052602260045260246000fd5b6000601f19601f8301169050919050565b7f43616e6e6f74207769746864726177206d6f7265207468616e20796f7520686160008201527f766520696e20796f7572207374616b696e672062616c616e6365000000000000602082015250565b7f43616c6c6572206d7573742068617665207374616b656420696e206f7264657260008201527f20746f20776974686472617720736f6d657468696e6700000000000000000000602082015250565b7f4f6e6c7920746865206f776e6572206f662074686520746f6b656e206661726d60008201527f2063616e2063616c6c20746869732066756e6374696f6e000000000000000000602082015250565b7f416d6f756e742063616e6e6f7420626520300000000000000000000000000000600082015250565b61191481611648565b811461191f57600080fd5b50565b61192b8161165a565b811461193657600080fd5b50565b61194281611686565b811461194d57600080fd5b5056fea2646970667358221220e29fd1254c7388da57304933e5d3c03eb2f76d905c7937e7a0f75cbba3fc350264736f6c63430008010033",
  "immutableReferences": {},
  "source": "// SPDX-License-Identifier: MIT\r\npragma solidity >=0.8.1;\r\nimport \"./MetoToken.sol\";\r\nimport \"./DaiToken.sol\";\r\n\r\ncontract TokenFarm {\r\n    string public name = \"Token Farm\";\r\n    address public owner;\r\n    MetoToken public metoToken;\r\n    DaiToken public daiToken;\r\n\r\n    mapping(address => uint256) public stakingBalance;\r\n    mapping(address => bool) public hasStaked;\r\n    mapping(address => bool) public isStaking;\r\n\r\n    address[] public stakers;\r\n\r\n    event Staked(address by, uint256 amount);\r\n    event Withdrawn(address by, uint256 amount);\r\n    event Issued(address to, uint256 amount);\r\n\r\n    constructor(MetoToken _metoToken, DaiToken _daiToken) {\r\n        //in order to use them in other functions\r\n        metoToken = _metoToken;\r\n        daiToken = _daiToken;\r\n        owner = msg.sender;\r\n    }\r\n\r\n    modifier onlyOwner {\r\n        require(msg.sender == owner, \"Only the owner of the token farm can call this function\");\r\n        _;\r\n    }\r\n\r\n    function getStakers() public view returns(address[] memory) {\r\n        return stakers;\r\n    }\r\n\r\n    //stake tokens - investor puts money into the app (deposit)\r\n    function stakeTokens(uint256 _amount) public {\r\n        require(_amount > 0, \"Amount cannot be 0\");\r\n        //transfer mock dai tokens to this contract for staking\r\n\r\n        daiToken.transferFrom(msg.sender, address(this), _amount);\r\n\r\n        //update staking balance\r\n        stakingBalance[msg.sender] += _amount;\r\n\r\n        // add user to stakers array only if they havent staked already,\r\n        // because later we'd want to give them only once the issued tokens\r\n        if (!hasStaked[msg.sender]) {\r\n            stakers.push(msg.sender);\r\n        }\r\n        //update staking status\r\n        isStaking[msg.sender] = true;\r\n        hasStaked[msg.sender] = true;\r\n\r\n        emit Staked(msg.sender, _amount);\r\n    }\r\n\r\n    //unstake tokens - investor withdraws money (withdraw)\r\n    //withdraw and arbitrary amount of tokens\r\n    function withdrawTokens(uint256 _amount) public {\r\n        require(_amount > 0, \"Amount cannot be 0\");\r\n        require(_amount <= stakingBalance[msg.sender], \"Cannot withdraw more than you have in your staking balance\");\r\n        require(hasStaked[msg.sender], \"Caller must have staked in order to withdraw something\");\r\n        //transfer mock dai tokens to this contract for staking\r\n\r\n        daiToken.transfer(msg.sender, _amount);\r\n\r\n        //update staking balance\r\n        stakingBalance[msg.sender] -= _amount;\r\n\r\n        //if account has withdrawn everything we need to remove them from the stakers array\r\n        \r\n        if (stakingBalance[msg.sender] == 0) {\r\n            address[] storage arr = stakers;\r\n            for (uint i=0; i < arr.length; i++) {\r\n                if (arr[i] == msg.sender) {\r\n                    arr[i] = arr[arr.length - 1];\r\n                    arr.pop();\r\n                    //update staking status\r\n                    hasStaked[msg.sender] = false;\r\n                    isStaking[msg.sender] = false;\r\n                    break;\r\n                }\r\n            }\r\n        }\r\n        emit Withdrawn(msg.sender, _amount);\r\n    }\r\n\r\n    //issue tokens\r\n    function issueTokens() public onlyOwner {\r\n        //issue tokens which are the same amount as the tokens the user has staked\r\n        for (uint256 i = 0; i < stakers.length; i++) {\r\n            if (stakingBalance[stakers[i]] > 0 ) {\r\n                metoToken.transfer(stakers[i], stakingBalance[stakers[i]]);\r\n                emit Issued(stakers[i], stakingBalance[stakers[i]]);\r\n            }\r\n        }\r\n    }\r\n}",
  "sourcePath": "C:/Users/Metodi/Desktop/ProjectsDapp/defi-react-app/contracts/TokenFarm.sol",
  "compiler": {
    "name": "solc",
    "version": "0.8.1+commit.df193b15.Emscripten.clang"
  },
  "schemaVersion": "3.3.2",
  "updatedAt": "2021-03-05T18:00:02.570Z",
  "networkType": "ethereum",
  "devdoc": {
    "kind": "dev",
    "methods": {},
    "version": 1
  },
  "userdoc": {
    "kind": "user",
    "methods": {},
    "version": 1
  }
}